DIMOB       201717250198558530001332260STELA RICIARDI                                              SP360086067410055706878820000000000000000000068643006706351                                                                                                                                                                                                              3186568982
R011985585300013320170000000000000000000000STELA RICIARDI                                              55706878820AVENIDA BRASIL SUL 439 - B - ZONA SUL                                                                                   SP2943ILHA SOLTEIRA       0,1,0,0                             11949311224
R021985585300013320170000143598935820   ESPOLIO DE FRANCISCO ALBANO GOMES                           14180411814   NELSON GALVAO DE SOUZA                                      001   01012017000000000650000000000000455000000000000000000000000650000000000000455000000000000000000000000650000000000000455000000000000000000000000650000000000000455000000000000000000000000650000000000000455000000000000000000000000650000000000000455000000000000000000000000718920000000000503200000000000000000000000162500000000000113800000000000000000000000179840000000000125900000000000000000000000162500000000000113800000000000000000000000162500000000000113800000000000000000000000162500000000000113800000000000000UAL. MATO GROSSO, 493 BL O AP 12                             153850002943ILHA SOLTEIRA       SP1033749877
R021985585300013320170000243598935820   ESPOLIO DE FRANCISCO ALBANO GOMES                           05773418800   MARIA APARECIDA BIANCO BERTANI                              002   01012017000000000650000000000000455000000000000000000000000000000000000000000000000000000000000000000650000000000002455000000000000000000000000719800000000000503900000000000000000000000650000000000000455000000000000000000000000722280000000000505600000000000000000000000650000000000000455000000000000000000000000162500000000000113800000000000000000000000162500000000000113800000000000000000000000162500000000000113800000000000000000000000162500000000000113800000000000000000000000162500000000000113800000000000000UAL MATO GROSSO, 493 BL O AP 03                              153850002943ILHA SOLTEIRA       SP1400400506
R021985585300013320170000343598935820   ESPOLIO DE FRANCISCO ALBANO GOMES                           14202680820   ARNALDO MUNIZ DE LIMA                                       003   01012017000000001500000000000001050000000000000000000000001500000000000001050000000000000000000000001500000000000001050000000000000000000000001651340000000001155900000000000000000000001500000000000001050000000000000000000000001550500000000001085400000000000000000000001705550000000001193900000000000000000000000775250000000000542700000000000000000000000775250000000000542700000000000000000000000775250000000000542700000000000000000000000885600000000000598900000000000000000000000000000000000000000000000000000000UAVENIDA ATLANTICA, 88                                       153850002943ILHA SOLTEIRA       SP3660185287
R021985585300013320170000443598935820   ESPOLIO DE FRANCISCO ALBANO GOMES                           17770903000154BENETTI E SOUZA CALCADOS LTDA EPP                           004   01012017000000003300000000000002310000000000014000000000003300000000000002310000000000014000000000003300000000000002310000000000014000000000003477760000000002434400000000011686000000003477760000000002434400000000016686000000003477760000000002434400000000016686000000003477760000000002434400000000016686000000001738880000000001217200000000008343000000001738880000000001217200000000008343000000001738880000000001217200000000008343000000001738880000000001217200000000008343000000001738880000000001217200000000008343UAVENIDA BRASIL NORTE, 210                                   153850002943ILHA SOLTEIRA       SP0633954702
R021985585300013320170000543598935820   ESPOLIO DE FRANCISCO ALBANO GOMES                           00007132000145IVANIR DA SILVA FERNANDES FRANCHINI EPP                     005   01012017000000003119400000000002183600000000011311000000003119400000000002183600000000011311000000003119400000000002183600000000011311000000003326840000000002328800000000000000000000003326840000000002328800000000011311000000003326840000000002328800000000022622000000003326840000000002328800000000011311000000001663420000000001164400000000005656000000001663420000000001131100000000005656000000001663420000000001164400000000005656000000001663420000000001164400000000005656000000001663420000000001164400000000005656UAVENIDA BRASIL NORTE, 222                                   153850002943ILHA SOLTEIRA       SP1797164342
R021985585300013320170000643598935820   ESPOLIO DE FRANCISCO ALBANO GOMES                           65864340000106IOSHIKASU TAKASU ME                                         006   01012017000000001400000000000000980000000000000000000000001400000000000000980000000000000000000000001400000000000000980000000000000000000000001400000000000000980000000000000000000000001468000000000001027600000000000000000000001468000000000001027600000000000000000000001468000000000001027600000000000000000000000734000000000000513800000000000000000000000734000000000000513800000000000000000000000734000000000000513800000000000000000000000734000000000000513800000000000000000000000734000000000051380000000000000000UAVENIDA BRASIL NORTE, 400                                   153850002943ILHA SOLTEIRA       SP2624719604
R021985585300013320170000743598935820   ESPOLIO DE FRANCISCO ALBANO GOMES                           45663068104   JOSE DOMINGOS DE AMORIM                                     0007  01012017000000000450000000000000315000000000000000000000000450000000000000315000000000000000000000000450000000000000315000000000000000000000000000000000000000000000000000000000000000000000000000000000000000000000000000000000000000000000000000000000000000000000000000000000000000000000000000000000000000000000000000000000000000000000000000000000000000000000000000000000000000000000000000000000000000000000000000000000000000000000000000000000000000000000000000000000000000000000000000000000000000000000000000000000UAVENIDA BRASIL NORTE, 400 A                                 153850002943ILHA SOLTEIRA       SP2227830807
R021985585300013320170000843598935820   ESPOLIO DE FRANCISCO ALBANO GOMES                           09818354818   LUCIO DE PAIVA                                              0008  01012017000000000450000000000000315000000000000000000000000450000000000000315000000000000000000000000450000000000000315000000000000000000000000450000000000000315000000000000000000000000450000000000000315000000000000000000000000450000000000000315000000000000000000000000450000000000000315000000000000000000000000225000000000000157500000000000000000000000225000000000000157500000000000000000000000225000000000000157500000000000000000000000225000000000000157500000000000000000000000225000000000000157500000000000000UAVENIDA BRASIL NORTE, 400B                                  153850002943ILHA SOLTEIRA       SP1968111485
R021985585300013320170000943598935820   ESPOLIO DE FRANCISCO ALBANO GOMES                           05630448000102J C CARDIN CALADOS ME                                       0009  01012017000000001480620000000001036400000000000000000000001480620000000001036400000000000000000000001480620000000001036400000000000000000000001480620000000001036400000000000000000000001480620000000001036400000000000000000000001480620000000001036400000000000000000000001480620000000001036400000000000000000000000740310000000000518200000000000000000000000740310000000000518200000000000000000000000740310000000000518200000000000000000000000740310000000000518200000000000000000000000740310000000000518200000000000000UAVENIDA BRASIL NORTE, 406                                   153850002943ILHA SOLTEIRA       SP0018086476
R021985585300013320170001043598935820   ESPOLIO DE FRANCISCO ALBANO GOMES                           04239010608   JOSE VIRGILIO DE OLIVEIRA JUNIOR                            0009  01012017000000000450640000000000315400000000000000000000000480600000000000336400000000000000000000000480600000000000336400000000000000000000000480600000000000336400000000000000000000000480600000000000336400000000000000000000000480600000000000336400000000000000000000000480600000000000336400000000000000000000000240300000000000168200000000000000000000000240300000000000168200000000000000000000000240300000000000168200000000000000000000000240300000000000168200000000000000000000000240300000000000168200000000000000UAVENIODA BRASIL NOPRTE, 406 A                               153850002943ILHA SOLTEIRA       SP2387383704
R021985585300013320170001143598935820   ESPOLIO DE FRANCISCO ALBANO GOMES                           43070083838   LAISA FERNANDA MORAIS                                       0010  01012017000000000450000000000000315000000000000000000000000450000000000000315000000000000000000000000450000000000000315000000000000000000000000450000000000000315000000000000000000000000450000000000000315000000000000000000000000450000000000000315000000000000000000000000450000000000000315000000000000000000000000225000000000000157500000000000000000000000225000000000000157500000000000000000000000225000000000000157500000000000000000000000225000000000000157500000000000000000000000225000000000000157500000000000000UAVENIDA BRASIL NORTE, 406 B                                 153850002943ILHA SOLTEIRA       SP3616409480
R021985585300013320170001243598935820   ESPOLIO DE FRANCISCO ALBANO GOMES                           26614021877   LUCIANO ALVES DOS ANJOS                                     0011  01012017000000001760000000000001232000000000000000000000001760000000000001232000000000000000000000001760000000000001232000000000000000000000001760000000000001232000000000000000000000001760000000000001232000000000000000000000001760000000000001232000000000000000000000000000000000000000000000000000000000000000000880000000000000616000000000000000000000000880000000000000616000000000000000000000000888150000000000621700000000000000000000000880000000000000616000000000000000000000000800000000000000560000000000000000UAVENIDA BRASIL NORTE, 412                                   153850002943ILHA SOLTEIRA       SP4139735041
R021985585300013320170001343598935820   ESPOLIO DE FRANCISCO ALBANO GOMES                           04613661854   SONIA MARIA PEREIRA                                         0012  01012017000000000450000000000000315000000000000000000000000450000000000000315000000000000000000000000450000000000000315000000000000000000000000450000000000000315000000000000000000000000450000000000000315000000000000000000000000000000000000000000000000000000000000000000000000000000000000000000000000000000000000000000000000000000000000000000000000000000000000000000000000000000000000000000000000000000000000000000000000000000000000000000000000000000000000000000000000000000000000000000000000000000000000000000000USONIA MARIA PEREIRA                                         153850002943ILHA SOLTEIRA       SP1628089997
R021985585300013320170001443598935820   ESPOLIO DE FRANCISCO ALBANO GOMES                           10955092000117LUCIA MARIA LAMEIRA ME                                      00013 01012017000000003110700000000002177500000000011497000000003110700000000002177500000000011497000000003110700000000002177500000000011497000000003422700000000002395900000000011497000000003422290000000002395600000000011497000000003110700000000002177500000000011497000000000000000000000000000000000000000000000000001555350000000001088700000000005749000000000000000000000000000000000000000000000000000000000000000000000000000000000000000000000000000000000000000000000000000000000000000000000000000000000000000000000000UAV BRASIL NORTE, 446                                        153850002943ILHA SOLTEIRA       SP2065387619
R021985585300013320170001543598935820   ESPOLIO DE FRANCISCO ALBANO GOMES                           32444028872   OSVALDO ZANOVELO                                            00013 01012017000000000650000000000000455000000000000000000000000650000000000000455000000000000000000000000650000000000000455000000000000000000000000650000000000000455000000000000000000000000650000000000000455000000000000000000000000650000000000000455000000000000000000000000650000000000000455000000000000000000000000146250000000000102400000000000000000000000000000000000000000000000000000000000000000000000000000000000000000000000000000000000000000000000000000000000000000000000000000000000000000000000000000000000000UPASSEIO ROCHEDO 102 AP 02                                   153850002943ILHA SOLTEIRA       SP1020951470
R021985585300013320170001643598935820   ESPOLIO DE FRANCISCO ALBANO GOMES                           54298652149   OTAVIO FERREIRA DE MEDEIROS NETTO                           00014 01012017000000000000000000000000000000000000000000000000000650000000000000455000000000000000000000000650000000000000455000000000000000000000000650000000000000455000000000000000000000000650000000000000455000000000000000000000000650000000000000455000000000000000000000000650000000000000455000000000000000000000000162500000000000113800000000000000000000000162500000000000113800000000000000000000000162500000000000113800000000000000000000000162500000000000113800000000000000000000000162500000000000113800000000000000UPASSEIO ROCHEDO, 102 APTO 03                                153850002943ILHA SOLTEIRA       SP3092542732
R021985585300013320170001743598935820   ESPOLIO DE FRANCISCO ALBANO GOMES                           11501844857   ELIANE OLIVEIRA RODRIGUES MUNHOZ                            00015 01012017000000000490000000000000343000000000000000000000000000000000000000000000000000000000000000000000000000000000000000000000000000000000000490000000000000343000000000000000000000000490000000000000343000000000000000000000000490000000000000343000000000000000000000000490000000000000343000000000000000000000000122500000000000085800000000000000000000000122500000000000085800000000000000000000000122500000000000085800000000000000000000000122500000000000085800000000000000000000000183750000000000128600000000000000URUA CANAVIEIRAS, 163 APTO 01                                153850002943ILHA SOLTEIRA       SP3399281357
R021985585300013320170001843598935820   ESPOLIO DE FRANCISCO ALBANO GOMES                           01759618837   CESAR ELISEU PACOALOTO                                      00016 01012017000000000756930000000000529900000000000000000000000000000000000000000000000000000000000000000000000000000000000000000000000000000000000000000000000000000000000000000000000000000000000000000000000000000000000000000000000000000000000000000000000000000000000000000000000000000000000000000000000000000000000000000000000000000000000000000000000000000000000000000000000000000000000000000000000000000000000000000000000000000000000000000000000000000000000000000000000000000000000000000000000000000000000000000000URUA CANAVIEIRAS, 163 APTO 02                                153850002943ILHA SOLTEIRA       SP0727010282
R021985585300013320170001943598935820   ESPOLIO DE FRANCISCO ALBANO GOMES                           29710635859   DANIELA HARUMI FUJIMOTO                                     00017 01012017000000000526000000000000368200000000000000000000000526000000000000368200000000000000000000000526000000000000368200000000000000000000000526000000000000368200000000000000000000000526000000000000368200000000000000000000000526000000000000368200000000000000000000000526000000000000368200000000000000000000000131500000000000092100000000000000000000000131500000000000092100000000000000000000000131500000000000092100000000000000000000000131500000000000092100000000000000000000000131500000000000092100000000000000URUA CANAVIEIRAS, 163 APTO 03                                153850002943ILHA SOLTEIRA       SP2006302993
R021985585300013320170002043598935820   ESPOLIO DE FRANCISCO ALBANO GOMES                           15071105888   REGIANE MAXIMO DE SOUZA                                     00018 01012017000000000481360000000000337000000000000000000000000000000000000000000000000000000000000000000000000000000000000000000000000000000000000000000000000000000000000000000000000000000529500000000000370700000000000000000000000000000000000000000000000000000000000000000000000000000000000000000000000000000000000000000000000000000000000000000000000000000000000000000000000000000000000000000000000000000000000000000000000000000000000000000000000000000000000000000000000000000000000000000000000000000000000000000000URUA CANAVIEIRAS, 163 APTO 05                                153850002943ILHA SOLTEIRA       SP3810374756
R021985585300013320170002143598935820   ESPOLIO DE FRANCISCO ALBANO GOMES                           16429389804   JOSE JORGE GIOVANINI                                        00019 01012017000000000557000000000000389900000000000000000000000557000000000000389900000000000000000000000557000000000000389900000000000000000000000557000000000000389900000000000000000000000557000000000000389900000000000000000000000616960000000000431900000000000000000000000557000000000000389900000000000000000000000139250000000000097500000000000000000000000139250000000000097500000000000000000000000264570000000000185200000000000000000000000000000000000000000000000000000000000000000000000000000000000000000000000000URUA CANAVIEIRAS, 163 APTO 07                                153850002943ILHA SOLTEIRA       SP0374785511
R021985585300013320170002243598935820   ESPOLIO DE FRANCISCO ALBANO GOMES                           35635113818   ROGERIO BORAZZO                                             0019  01012017000000000520000000000000364000000000000000000000000520000000000000364000000000000000000000000520000000000000364000000000000000000000000520000000000000364000000000000000000000000520000000000000364000000000000000000000000520000000000000364000000000000000000000000520000000000000364000000000000000000000000130000000000000091000000000000000000000000130000000000000091000000000000000000000000130000000000000091000000000000000000000000130000000000000091000000000000000000000000130000000000000091000000000000000URUA CANAVIEIRAS, 163 APTO 09                                153850002943ILHA SOLTEIRA       SP0409431591
R021985585300013320170002343598935820   ESPOLIO DE FRANCISCO ALBANO GOMES                           78656427849   GILBERTO CONTIERO VILA                                      00020 01012017000000000000000000000000000000000000000000000000000650000000000000455000000000000000000000000650000000000000455000000000000000000000000650000000000000455000000000000000000000000650000000000000455000000000000000000000000650000000000000455000000000000000000000000650000000000000455000000000000000000000000162500000000000113800000000000000000000000162500000000000113800000000000000000000000162500000000000113800000000000000000000000162500000000000113800000000000000000000000162500000000000113800000000000000URUA CANAVIEIRAS, 163 APTO 10                                153850002943ILHA SOLTEIRA       SP2993767235
R021985585300013320170002443598935820   ESPOLIO DE FRANCISCO ALBANO GOMES                           24741131858   SEVERINA MARQUES VALADAO                                    00021 01012017000000000520000000000000364000000000000000000000000520000000000000364000000000000000000000000520000000000000364000000000000000000000000520000000000000364000000000000000000000000520000000000000364000000000000000000000000520000000000000364000000000000000000000000520000000000000364000000000000000000000000130000000000000091000000000000000000000000164670000000000115300000000000000000000000034670000000000024300000000000000000000000000000000000000000000000000000000000000000000000000000000000000000000000000URUA CANAVIEIRAS, 163 APTO 11                                153850002943ILHA SOLTEIRA       SP1812477052
R021985585300013320170002543598935820   ESPOLIO DE FRANCISCO ALBANO GOMES                           06675486888   MARIA DO CEU BEZERRA DE ALCANTARA                           00022 01012017000000000620000000000000434000000000000000000000000620000000000000434000000000000000000000000620000000000000434000000000000000000000000620000000000000434000000000000000000000000620000000000000434000000000000000000000000620000000000000434000000000000000000000000000000000000000000000000000000000000000000155000000000000108500000000000000000000000155000000000000108500000000000000000000000000000000000000000000000000000000000000000000000000000000000000000000000000000000000000000000000000000000000000000000URUA CANAVIEIRAS, 163 APTO 12                                153850002943ILHA SOLTEIRA       SP1655716693
R021985585300013320170002643598935820   ESPOLIO DE FRANCISCO ALBANO GOMES                           14417841870   REGIS WILLIAN DE LIMA CAVASSANO                             00023 01012017000000000520000000000000364000000000000000000000000520000000000000364000000000000000000000000520000000000000364000000000000000000000000520000000000000364000000000000000000000000520000000000000364000000000000000000000000000000000000000000000000000000000000000000520000000000000364000000000000000000000000130000000000000091000000000000000000000000130000000000000091000000000000000000000000145300000000000101700000000000000000000000144280000000000101000000000000000000000000144280000000000101000000000000000URUA CANAVIEIRAS, 171 APTO 01                                153850002943ILHA SOLTEIRA       SP0997018169
R021985585300013320170002743598935820   ESPOLIO DE FRANCISCO ALBANO GOMES                           06722446832   NAGE OMAR                                                   00024 01012017000000000650000000000000455000000000000000000000000650000000000000455000000000000000000000000650000000000000455000000000000000000000000650000000000000455000000000000000000000000719710000000000503800000000000000000000000650000000000000455000000000000000000000000650000000000000455000000000000000000000000162500000000000113800000000000000000000000162500000000000113800000000000000000000000162500000000000113800000000000000000000000162500000000000113800000000000000000000000162500000000000113800000000000000URUA CANAVIEIRAS, 171 APTO 02                                153850002943ILHA SOLTEIRA       SP2723977268
R021985585300013320170002843598935820   ESPOLIO DE FRANCISCO ALBANO GOMES                           38191919842   LETICIA CAMILA COMAR                                        00025 01012017000000000536700000000000375700000000000000000000000536700000000000375700000000000000000000000536700000000000375700000000000000000000000536700000000000375700000000000000000000000536700000000000375700000000000000000000000232260000000000162600000000000000000000000000000000000000000000000000000000000000000000000000000000000000000000000000000000000000000000000000000000000000000000000000000000000000000000000000000000000000000000000000000000000000000000000000000000000000000000000000000000000000000000000000URUA CANAVIEIRAS, 171 APTO 03                                153850002943ILHA SOLTEIRA       SP2948663564
R021985585300013320170002943598935820   ESPOLIO DE FRANCISCO ALBANO GOMES                           37835239825   BEATRIZ PEREIRA                                             00026 01012017000000000520000000000000364000000000000000000000000520000000000000364000000000000000000000000520000000000000364000000000000000000000000520000000000000364000000000000000000000000520000000000000364000000000000000000000000520000000000000364000000000000000000000000520000000000000364000000000000000000000000130000000000000091000000000000000000000000130000000000000091000000000000000000000000130000000000000091000000000000000000000000130000000000000091000000000000000000000000130000000000000091000000000000000URUA CANAVIEIRA, 171 APTO 05                                 153850002943ILHA SOLTEIRA       SP1713238149
R021985585300013320170003043598935820   ESPOLIO DE FRANCISCO ALBANO GOMES                           40333400178   CLEZIO ANTONIO LARA                                         00026 01012017000000000620000000000000434000000000000000000000000620000000000000434000000000000000000000000620000000000000434000000000000000000000000620000000000000434000000000000000000000000620000000000000434000000000000000000000000620000000000000434000000000000000000000000620000000000000434000000000000000000000000155000000000000108500000000000000000000000000000000000000000000000000000000000000000327170000000000229000000000000000000000000155000000000000108500000000000000000000000155000000000000108500000000000000URUA CANAVIEIRAS, 171 APTO 06                                153850002943ILHA SOLTEIRA       SP1472926713
R021985585300013320170003143598935820   ESPOLIO DE FRANCISCO ALBANO GOMES                           27206912168   IOLANDA CARNEIRO DE BARROS SIQUEIRA                         00028 01012017000000000520000000000000364000000000000000000000000520000000000000364000000000000000000000000520000000000000364000000000000000000000000520000000000000364000000000000000000000000520000000000000364000000000000000000000000520000000000000364000000000000000000000000520000000000000364000000000000000000000000130000000000000091000000000000000000000000130000000000000091000000000000000000000000130000000000000091000000000000000000000000130000000000000091000000000000000000000000130000000000000091000000000000000URUA CANAVIEIRAS, 171 APTO 07                                153850002943ILHA SOLTEIRA       SP2809704396
R021985585300013320170003243598935820   ESPOLIO DE FRANCISCO ALBANO GOMES                           70849382904   MARIA IEDA PIGA ZAGO                                        00029 01012017000000000650000000000000455000000000000000000000000650000000000000455000000000000000000000000650000000000000455000000000000000000000000650000000000000455000000000000000000000000650000000000000455000000000000000000000000650000000000000455000000000000000000000000650000000000000455000000000000000000000000162500000000000113800000000000000000000000162500000000000113800000000000000000000000162500000000000113800000000000000000000000162500000000000113800000000000000000000000162500000000000113800000000000000URUA CANAVIEIRAS, 171 APTO 08                                153850002943ILHA SOLTEIRA       SP2396017291
R021985585300013320170003343598935820   ESPOLIO DE FRANCISCO ALBANO GOMES                           21696916852   LIVIAN CRISTINA FARAH                                       00030 01012017000000000520000000000000364000000000000000000000000520000000000000364000000000000000000000000520000000000000364000000000000000000000000520000000000000364000000000000000000000000000000000000000000000000000000000000000000520000000000000364000000000000000000000000000000000000000000000000000000000000000000000000000000000000000000000000000000000000000000000000000000000000000000000000000000000000000000000000000000000000000000000000000000000000000000000000000000000000000000000000000000000000000000000000000URUA CANAVIEIRAS, 171 APTO 09                                153850002943ILHA SOLTEIRA       SP4131655398
R021985585300013320170003443598935820   ESPOLIO DE FRANCISCO ALBANO GOMES                           37321176851   LUIZA PERRONI FAGUNDES                                      00031 01012017000000000980000000000000686000000000000000000000000490000000000000343000000000000000000000000490000000000000343000000000000000000000000490000000000000343000000000000000000000000490000000000000343000000000000000000000000490000000000000343000000000000000000000000000000000000000000000000000000000000000000122500000000000085800000000000000000000000122500000000000085800000000000000000000000122500000000000085800000000000000000000000122500000000000085800000000000000000000000122500000000000085800000000000000URUA CANAVIEIRAS, 171 APTO 11                                153850002943ILHA SOLTEIRA       SP1019744266
R021985585300013320170003543598935820   ESPOLIO DE FRANCISCO ALBANO GOMES                           34177900850   THIAGO FRANCISCO SILVA TRENTIN                              00032 01012017000000000650000000000000455000000000000000000000000650000000000000455000000000000000000000000650000000000000455000000000000000000000000650000000000000455000000000000000000000000650000000000000455000000000000000000000000650000000000000455000000000000000000000000650000000000000455000000000000000000000000162500000000000113800000000000000000000000162500000000000113800000000000000000000000162520000000000113800000000000000000000000162500000000000113800000000000000000000000162500000000000113800000000000000URUA CANAVIEIRAS, 171 APTO 12                                153850002943ILHA SOLTEIRA       SP4041001842
R021985585300013320170003643598935820   ESPOLIO DE FRANCISCO ALBANO GOMES                           70366241834   EGBERTO SILVESTRE HEIN                                      00034 01012017000000000650000000000000455000000000000000000000000650000000000000455000000000000000000000000650000000000000455000000000000000000000000650000000000000455000000000000000000000000650000000000000455000000000000000000000000650000000000000455000000000000000000000000650000000000000455000000000000000000000000162500000000000113800000000000000000000000162500000000000113800000000000000000000000162500000000000113800000000000000000000000162500000000000113800000000000000000000000162500000000000113800000000000000URUA CANAVIEIRAS, 183 APTO 01                                153850002943ILHA SOLTEIRA       SP0481577106
R021985585300013320170003743598935820   ESPOLIO DE FRANCISCO ALBANO GOMES                           10393393879   VICENTE LUIZ SCALON                                         00037 01012017000000000650000000000000455000000000000000000000000650000000000000455000000000000000000000000650000000000000455000000000000000000000000650000000000000455000000000000000000000000650000000000000455000000000000000000000000650000000000000455000000000000000000000000650000000000000455000000000000000000000000162500000000000113800000000000000000000000162500000000000113800000000000000000000000162500000000000113800000000000000000000000162500000000000113800000000000000000000000162500000000000113800000000000000URUA CANAVIEIRAS, 183 APTO 02                                153850002943ILHA SOLTEIRA       SP1774741338
R021985585300013320170003843598935820   ESPOLIO DE FRANCISCO ALBANO GOMES                           46472959900   HAROLDO DE MAYO BERNARDES                                   00038 01012017000000000000000000000000000000000000000000000000000000000000000000000000000000000000000000000000000000000000000000000000000000000000000000000000000000000000000000000000000000000000000000000000000000000000000000000000000000000000000000000000000000000000000000000000000000000000000000000000000000000000000000000000000000000000000000000000000000000000000000000000000000000000000000000000000000000000000000000000000000000000000000000000000000000000000000000000000000000000000000000000000000000000000000000000URUA CANAVIEIRAS, 183 APTO 03                                153850002943ILHA SOLTEIRA       SP3012861630
R021985585300013320170003943598935820   ESPOLIO DE FRANCISCO ALBANO GOMES                           59548339153   SANDRO SHIGUEO WAGATUMA                                     00038 01012017000000000620000000000000434000000000000000000000000620000000000000434000000000000000000000000620000000000000434000000000000000000000000620000000000000434000000000000000000000000620000000000000434000000000000000000000000620000000000000434000000000000000000000000620000000000000434000000000000000000000000155000000000000108500000000000000000000000155000000000000108500000000000000000000000155000000000000108500000000000000000000000155000000000000108500000000000000000000000155000000000000108500000000000000URUA CANAVIEIRAS 183 APTO 04                                 153850002943ILHA SOLTEIRA       SP3443648122
R021985585300013320170004043598935820   ESPOLIO DE FRANCISCO ALBANO GOMES                           09293050862   NILZA CRISTINA BONADIO FRANCO GIRARDI                       00039 01012017000000000650000000000000455000000000000000000000000650000000000000455000000000000000000000000650000000000000455000000000000000000000000650000000000000455000000000000000000000000650000000000000455000000000000000000000000650000000000000455000000000000000000000000650000000000000455000000000000000000000000162500000000000113800000000000000000000000162500000000000113800000000000000000000000162500000000000113800000000000000000000000162500000000000113800000000000000000000000179330000000000125500000000000000URUA CANAVIEIRAS, 183 APTO 05                                153850002943ILHA SOLTEIRA       SP1392351670
R021985585300013320170004143598935820   ESPOLIO DE FRANCISCO ALBANO GOMES                           40641347880   MARLI BENICIO SOBRAL                                        00040 01012017000000000650000000000000455000000000000000000000000650000000000000455000000000000000000000000650000000000000455000000000000000000000000650000000000000455000000000000000000000000650000000000000455000000000000000000000000650000000000000455000000000000000000000000000000000000000000000000000000000000000000000000000000000000000000000000000000000000000000000000000000000000000000000000000000000000000000000000000000000000000000000000000000000000000000000000000000000000000000000000000000000000000000000000000URUA CANAVIEIRAS, 183 APTO 06                                153850002943ILHA SOLTEIRA       SP1276103056
R021985585300013320170004243598935820   ESPOLIO DE FRANCISCO ALBANO GOMES                           74241931634   JOSE PIRES                                                  00042 01012017000000000650000000000000455000000000000000000000000650000000000001009500000000000000000000000650000000000001009500000000000000000000000650000000000000455000000000000000000000000650000000000000455000000000000000000000000650000000000000455000000000000000000000000650000000000000455000000000000000000000000162500000000000113800000000000000000000000162500000000000113800000000000000000000000162500000000000113800000000000000000000000162500000000000113800000000000000000000000162500000000000113800000000000000URUA CANAVIEIRAS, 183 APTO 07                                153850002943ILHA SOLTEIRA       SP1105252810
R021985585300013320170004343598935820   ESPOLIO DE FRANCISCO ALBANO GOMES                           43598935820   ELVYS SILVA TORRES NOGUEIRA                                 00043 01012017000000000650000000000000455000000000000000000000000000000000000000000000000000000000000000000650000000000000455000000000000000000000000650000000000000455000000000000000000000000650000000000000455000000000000000000000000650000000000000455000000000000000000000000650000000000000455000000000000000000000000162500000000000113800000000000000000000000162500000000000113800000000000000000000000162500000000000113800000000000000000000000162500000000000113800000000000000000000000162500000000000113800000000000000URUA CANAVIEIRAS, 183 APTO 08                                153850002943ILHA SOLTEIRA       SP0459470499
R021985585300013320170004443598935820   ESPOLIO DE FRANCISCO ALBANO GOMES                           35249456863   FERNANDO GASPAR PIVARO                                      00045 01012017000000000650000000000000455000000000000000000000000650000000000000455000000000000000000000000650000000000000455000000000000000000000000650000000000000455000000000000000000000000650000000000000455000000000000000000000000650000000000000455000000000000000000000000650000000000000455000000000000000000000000162500000000000113800000000000000000000000162500000000000113800000000000000000000000162500000000000113800000000000000000000000162500000000000113800000000000000000000000162500000000000113800000000000000URUA CANANVIEIRAS, 183 APTO 09                               153850002943ILHA SOLTEIRA       SP0607732425
R021985585300013320170004543598935820   ESPOLIO DE FRANCISCO ALBANO GOMES                           18455372893   RENATA CRISTINA C A FERREIRA                                00045 01012017000000000620000000000000434000000000000000000000001302000000000000911400000000000000000000001302000000000000911400000000000000000000000620000000000000434000000000000000000000000682000000000000477400000000000000000000000688740000000000482100000000000000000000000620000000000000434000000000000000000000000155000000000000108500000000000000000000000155000000000000108500000000000000000000000155000000000000108500000000000000000000000155000000000000108500000000000000000000000155000000000000108500000000000000URUA CANAVIEIRAS, 183 APTO 10                                153850002943ILHA SOLTEIRA       SP4219231529
R021985585300013320170004643598935820   ESPOLIO DE FRANCISCO ALBANO GOMES                           36829950805   CARLA JAQUELINE CASTELLANI                                  00048 01012017000000000650000000000000455000000000000000000000000650000000000000455000000000000000000000000650000000000000455000000000000000000000000650000000000000455000000000000000000000000650000000000000455000000000000000000000000650000000000000455000000000000000000000000650000000000000455000000000000000000000000162500000000000113800000000000000000000000162500000000000113800000000000000000000000162500000000000113800000000000000000000000162500000000000113800000000000000000000000000000000000000000000000000000000URUA CANAVIEIRAS, 183 APTO 11                                153850002943ILHA SOLTEIRA       SP2006266741
R021985585300013320170004743598935820   ESPOLIO DE FRANCISCO ALBANO GOMES                           10493632808   DENISE APARECIDA ZAMPIEIR COGNETTE                          00049 01012017000000000620000000000000434000000000000000000000000620000000000000434000000000000000000000000620000000000000434000000000000000000000000620000000000000434000000000000000000000000620000000000000434000000000000000000000000620000000000000434000000000000000000000000620000000000000434000000000000000000000000155000000000000108500000000000000000000000155000000000000108500000000000000000000000155000000000000108500000000000000000000000155000000000000108500000000000000000000000155000000000000108500000000000000URUA CANAVIEIRAS, 183 APTO 12                                153850002943ILHA SOLTEIRA       SP4176769752
R021985585300013320170004843598935820   ESPOLIO DE FRANCISCO ALBANO GOMES                           20543315894   FABIANA APARECIDA DO NASCIMENTO SOARES                      0050  01012017000000000550000000000000385000000000000000000000000550000000000000385000000000000000000000000550000000000000385000000000000000000000000550000000000000385000000000000000000000000550000000000000385000000000000000000000000550000000000000385000000000000000000000000550000000000000385000000000000000000000000137500000000000096300000000000000000000000137500000000000096300000000000000000000000137500000000000096300000000000000000000000137500000000000096300000000000000000000000137500000000000096300000000000000URUA ILHEUS, 176 BLOCO A APTO 01                             153850002943ILHA SOLTEIRA       SP3065425561
R021985585300013320170004943598935820   ESPOLIO DE FRANCISCO ALBANO GOMES                           06747168844   PEDRO SALIS                                                 00051 01012017000000000590000000000000413000000000000000000000000590000000000000413000000000000000000000000590000000000000413000000000000000000000000590000000000000413000000000000000000000000590000000000000413000000000000000000000000590000000000000413000000000000000000000000590000000000000413000000000000000000000000147500000000000103300000000000000000000000147500000000000103300000000000000000000000147500000000000103300000000000000000000000147500000000000103300000000000000000000000147500000000000103300000000000000URUA ILHEUS, 176 BLOCO A APTO 02                             153850002943ILHA SOLTEIRA       SP2160320993
R021985585300013320170005043598935820   ESPOLIO DE FRANCISCO ALBANO GOMES                           02381791841   SIDNEI LUIZ GARCIA                                          00058 01012017000000000670000000000000469000000000000000000000000670000000000000469000000000000000000000000670000000000000469000000000000000000000000670000000000000469000000000000000000000000670000000000000469000000000000000000000000670000000000000469800000000000000000000000670000000000000469000000000000000000000000167500000000000117300000000000000000000000167500000000000117300000000000000000000000000000000000000000000000000000000000000000000000000000000000000000000000000000000000000000000000000000000000000000000URUA ILHEUS, 176 BLOCO A APTO 03                             153850002943ILHA SOLTEIRA       SP4036317533
R021985585300013320170005143598935820   ESPOLIO DE FRANCISCO ALBANO GOMES                           94828970800   REJANE MARIA VICENTINI                                      00059 01012017000000000737000000000000737000000000000000000000000000000000000000000000000000000000000000000000000000000000000000000000000000000000000000000000000000000000000000000000000000000000000000000000000000000000000000000000000000000000000000000000000000000000000000000000000000000000000000000000000000000000000000000000000000000000000000000000000000000000000000000000000000000000000000000000000000000000000000000000000000000000000000000000000000000000000000000000000000000000000000000000000000000000000000000000URUA ILHEUS, 176 - BLOCO A APTO 04                           153850002943ILHA SOLTEIRA       SP3589469139
R021985585300013320170005243598935820   ESPOLIO DE FRANCISCO ALBANO GOMES                           11385793864   MARCELO EDUARDO DANIEL                                      0060  01012017000000000670000000000000469000000000000000000000000670000000000000469000000000000000000000000670000000000000469000000000000000000000000670000000000000469000000000000000000000000000000000000000000000000000000000000000001340000000000000938000000000000000000000000670000000000000469000000000000000000000000167500000000000117300000000000000000000000167500000000000117300000000000000000000000167500000000000117300000000000000000000000167500000000000117300000000000000000000000167500000000000117300000000000000URUA ILHEUS, 176 BLOCO B APTO 01                             153850002943ILHA SOLTEIRA       SP2642725324
R021985585300013320170005343598935820   ESPOLIO DE FRANCISCO ALBANO GOMES                           01903260850   SIRLEI APARECIDA GOMES MIRON                                00060 01012017000000000700000000000000490000000000000000000000000700000000000000490000000000000000000000000700000000000000490000000000000000000000000700000000000000490000000000000000000000000650000000000000455000000000000000000000000650000000000000455000000000000000000000000000000000000000000000000000000000000000000162500000000000113800000000000000000000000162500000000000113800000000000000000000000162500000000000113800000000000000000000000162500000000000113800000000000000000000000162500000000000113800000000000000URUA REMANDO, 186 APTO 04                                    153850002943ILHA SOLTEIRA       SP3319328098
R021985585300013320170005443598935820   ESPOLIO DE FRANCISCO ALBANO GOMES                           96341564872   BENEDITA MARIA RODRIGUES OTUBO                              00061 01012017000000000000000000000000000000000000000000000000000650000000000000455000000000000000000000000650000000000000455000000000000000000000000650000000000000455000000000000000000000000650000000000000455000000000000000000000000650000000000000455000000000000000000000000650000000000000455000000000000000000000000181310000000000126900000000000000000000000162500000000000113800000000000000000000000000000000000000000000000000000000000000000000000000000000000000000000000000000000000717960000000000502600000000000000URUA REMANSO, 186 APTO 05                                    153850002943ILHA SOLTEIRA       SP2634402119
R021985585300013320170005543598935820   ESPOLIO DE FRANCISCO ALBANO GOMES                           46523049191   EUCELIA MOREIRA CASSAL                                      00051 01012017000000000650000000000000455000000000000000000000000650000000000001165200000000000000000000000650000000000001165200000000000000000000000650000000000000455000000000000000000000000715000000000000500500000000000000000000000650000000000000455000000000000000000000000650000000000000455000000000000000000000000162500000000000113800000000000000000000000281400000000000197000000000000000000000000000000000000000000000000000000000000000000000000000000000000000000000000000000000000000000000000000000000000000000000URUA REMANSO, 186 APTO 07                                    153850002943ILHA SOLTEIRA       SP1504047684
R021985585300013320170005643598935820   ESPOLIO DE FRANCISCO ALBANO GOMES                           07072458859   SANDRA MOREIRA DA SILVA                                     00052 01012017000000000310000000000000217000000000000000000000000310000000000000217000000000000000000000000310000000000000217000000000000000000000000310000000000000217000000000000000000000000310000000000000217000000000000000000000000310000000000000217000000000000000000000000310000000000000217000000000000000000000000077500000000000054300000000000000000000000077500000000000054300000000000000000000000077500000000000054300000000000000000000000086020000000000060200000000000000000000000077500000000000054300000000000000URUA REMANSO, 186 APTO 08                                    153850002943ILHA SOLTEIRA       SP4073484021
R021985585300013320170005743598935820   ESPOLIO DE FRANCISCO ALBANO GOMES                           09063533861   ANA NILCE MOLONE DE MOURA                                   0018  01012017000000000310000000000000217000000000000000000000000310000000000000217000000000000000000000000310000000000000217000000000000000000000000310000000000000217000000000000000000000000310000000000000217000000000000000000000000310000000000000217000000000000000000000000310000000000000217000000000000000000000000077500000000000054300000000000000000000000077500000000000054300000000000000000000000077500000000000054300000000000000000000000086020000000000060200000000000000000000000077500000000000054300000000000000URUA REMANSO, 186 APTO 08                                    153850002943ILHA SOLTEIRA       SP1960688271
R021985585300013320170005843598935820   ESPOLIO DE FRANCISCO ALBANO GOMES                           09288315829   ANDRE LUIZ D ALOIA                                          00052 01012017000000000650000000000000455000000000000000000000000650000000000000455000000000000000000000000650000000000000455000000000000000000000000650000000000000455000000000000000000000000650000000000000455000000000000000000000000720150000000000504100000000000000000000000650000000000000455000000000000000000000000162500000000000113800000000000000000000000162500000000000113800000000000000000000000162500000000000113800000000000000000000000162500000000000113800000000000000000000000162500000000000113800000000000000URUA REMANSO, 186 APTO 09                                    153850002943ILHA SOLTEIRA       SP0139862496
R021985585300013320170005908937608898   ANDRE LUIZ GOMES                                            07241439000155HELENA MARIA CURTI MAGUETAS ME                              00058 01012017000000002302350000000001611700000000000000000000002500000000000001750000000000000000000000002500000000000001750000000000000000000000002500000000000001750000000000000000000000002500000000000001750000000000000000000000002500000000000001750000000000000000000000002500000000000001750000000000000000000000002500000000000001750000000000000000000000002500000000000001750000000000000000000000002500000000000001750000000000000000000000000000000000000000000000000000000000000000002500000000000001750000000000000000UAV BRASIL NORTE, 236                                        153850002943ILHA SOLTEIRA       SP2037924272
R021985585300013320170006008937608898   ANDRE LUIZ GOMES                                            01272837000152EDMUNDO  GOMES ILHA SOLTEIRA ME                             00059 01012017000000003683790000000002578700000000008497000000003683790000000002578700000000008497000000003683790000000002578700000000008497000000003683790000000002578700000000008497000000003683790000000002578700000000008497000000003683790000000002578700000000008497000000003683790000000002578700000000008497000000003683790000000002578700000000008497000000000000000000000000000000000000000000000000000000000000000000000000000000000000000000000000000000000000000000000000000000000000000000000000000000000000000000000000UAVENIDA BRASIL NORTE, 268                                   153850002943ILHA SOLTEIRA       SP0947580314
R021985585300013320170006108937608898   ANDRE LUIZ GOMES                                            04647914000108ARMANDO HIDEYOSHI YAMAMOTO ILHA SOLTEIRA ME                 00060 01012017000000002431000000000001701700000000000000000000002431000000000001701700000000000000000000002431000000000001701700000000000000000000002605800000000001824100000000000000000000002605800000000001824100000000000000000000002605800000000001824100000000000000000000002605800000000001824100000000000000000000002605800000000001824100000000000000000000002605800000000001824100000000000000000000002605800000000001824100000000000000000000000000000000000000000000000000000000000000002605800000000001824100000000000000UAVENIDA BRASIL NORTE, 390                                   153850002943ILHA SOLTEIRA       SP3400929855
R021985585300013320170006243598935820   ESPOLIO DE FRANCISCO ALBANO GOMES                           65269381168   LUCIMAR APARECIDA DA SILVA                                  0080  01012017000000000000000000000000000000000000000000000000000560000000000000392000000000000000000000000560000000000000392000000000000000000000000560000000000000392000000000000000000000000616000000000000431200000000000000000000000560000000000000392000000000000000000000000560000000000000392000000000000000000000000140000000000000098000000000000000000000000140000000000000098000000000000000000000000140000000000000098000000000000000000000000140000000000000098000000000000000000000000140000000000000098000000000000000URUA CANAVIEIRAS, 171 APTO 10                                153850002943ILHA SOLTEIRA       SP4101904765
R021985585300013320170006343598935820   ESPOLIO DE FRANCISCO ALBANO GOMES                           11745505890   ERIVELTON ADRIANI BERTOLETTI                                009   01012017000000000000000000000000000000000000000000000000000000000000000000000000000000000000000000000000000000000000000000000000000000000000000600000000000000420000000000000000000000000600000000000000420000000000000000000000000600000000000000420000000000000000000000000600000000000000420000000000000000000000000150000000000000105000000000000000000000000150000000000000105000000000000000000000000150000000000000105000000000000000000000000150000000000000105000000000000000000000000150000000000000105000000000000000URUA CANAVIEIRAS, 163 APTO 06                                153850002943ILHA SOLTEIRA       SP3195524432
R021985585300013320170006443598935820   ESPOLIO DE FRANCISCO ALBANO GOMES                           43349410871   GUILHERME AUGUSTO MARTINS                                   0080  01012017000000000000000000000000000000000000000000000000000000000000000000000000000000000000000000000000000000000000000000000000000000000000000590000000000000413000000000000000000000000590000000000000413000000000000000000000000590000000000000413000000000000000000000000590000000000000413000000000000000000000000147500000000000103300000000000000000000000147500000000000103300000000000000000000000147500000000000103300000000000000000000000147500000000000102300000000000000000000000147500000000000103300000000000000URUA REMANSO, 186 APTO 02                                    153850002943ILHA SOLTEIRA       SP0168599972
R021985585300013320170006543598935820   ESPOLIO DE FRANCISCO ALBANO GOMES                           44426105846   THIAGO ALMEIDA BUENO                                        0091  01012017000000000000000000000000000000000000000000000000000000000000000000000000000000000000000000000000000000000000000000000000000000000000000682000000000000477400000000000000000000000620000000000000434000000000000000000000000620000000000000434000000000000000000000000620000000000000434000000000000000000000000155000000000000108500000000000000000000000155000000000000108500000000000000000000000155000000000000108500000000000000000000000155000000000000108500000000000000000000000155000000000000108500000000000000URUA REMANSO, 186 APTO 03                                    153850002943ILHA SOLTEIRA       SP2802843251
R021985585300013320170006643598935820   ESPOLIO DE FRANCISCO ALBANO GOMES                           34668648876   ADRIANA CARDOSO DA CRUZ                                     008   01012017000000000000000000000000000000000000000000000000000000000000000000000000000000000000000000000000000000000000000000000000000000000000000000000000000000000000000000000000000000000000000000000000000000000000000000000000000450000000000000315000000000000000000000000450000000000000315000000000000000000000000225000000000000157500000000000000000000000225000000000000157500000000000000000000000225000000000000157500000000000000000000000225000000000000157500000000000000000000000225000000000000157500000000000000UAV BRASIL NORTE, 412 A                                      153850002943ILHA SOLTEIRA       SP1925068440
R021985585300013320170006743598935820   ESPOLIO DE FRANCISCO ALBANO GOMES                           40966603885   JORDAN HENRIQUE MATOS DE SOUZA                              008   01012017000000000000000000000000000000000000000000000000000000000000000000000000000000000000000000000000000000000000000000000000000000000000000000000000000000000000000000000000000000000620000000000000434000000000000000000000000620000000000000434000000000000000000000000620000000000000434000000000000000000000000155000000000000108500000000000000000000000155000000000000108500000000000000000000000155000000000000108500000000000000000000000155000000000000108500000000000000000000000155000000000000108500000000000000URUA CANAVIEIRAS, 163 APTO 04                                153850002943ILHA SOLTEIRA       SP1371888602
R021985585300013320170006843598935820   ESPOLIO DE FRANCISCO ALBANO GOMES                           15071105888   REGIANE MAXIMO DE SOUZA                                     0010  01012017000000000000000000000000000000000000000000000000000000000000000000000000000000000000000000000000000000000000000000000000000000000000000000000000000000000000000000000000000000000620000000000000434000000000000000000000000620000000000000434000000000000000000000000620000000000000434000000000000000000000000155000000000000108500000000000000000000000155000000000000108500000000000000000000000155000000000000108500000000000000000000000155000000000000108500000000000000000000000155000000000000108500000000000000URUA CANAVIEIRAS, 163 APTO 02                                153850002943ILHA SOLTEIRA       SP3177853038
R021985585300013320170006943598935820   ESPOLIO DE FRANCISCO ALBANO GOMES                           44451430810   NICOLAS MARCELO PINTO                                       0010  01012017000000000000000000000000000000000000000000000000000000000000000000000000000000000000000000000000000000000000000000000000000000000000000000000000000000000000000000000000000000000000000000000000000000000000000000000000000000000000000000000000000000000000000000000550000000000000385000000000000000000000000137500000000000096300000000000000000000000137500000000000096300000000000000000000000137500000000000096300000000000000000000000137500000000000096300000000000000000000000137500000000000096300000000000000UAL MATO GROSSO, 493 BL O AP 04                              153850002943ILHA SOLTEIRA       SP3523311478
R021985585300013320170007043598935820   ESPOLIO DE FRANCISCO ALBANO GOMES                           44268631801   BRUNA MIGUEL CARDOSO                                        0015  01012017000000000000000000000000000000000000000000000000000000000000000000000000000000000000000000000000000000000000000000000000000000000000000000000000000000000000000000000000000000000000000000000000000000000000000000000000000000000000000000000000000000000000000000000000000000000000000000000000000000000000000122500000000000085800000000000000000000000122500000000000085800000000000000000000000122500000000000085800000000000000000000000122500000000000085800000000000000000000000122500000000000085800000000000000URUA CANAVIEIRAS, 171 APTO 03                                153850002943ILHA SOLTEIRA       SP1296832836
R021985585300013320170007143598935820   ESPOLIO DE FRANCISCO ALBANO GOMES                           70292070179   VITORIA ALVES FIGUEIREDO                                    009   01012017000000000000000000000000000000000000000000000000000000000000000000000000000000000000000000000000000000000000000000000000000000000000000000000000000000000000000000000000000000000000000000000000000000000000000000000000000000000000000000000000000000000000000000000650000000000000455000000000000000000000000162500000000000113800000000000000000000000178860000000000125200000000000000000000000341360000000000239000000000000000000000000162500000000000113800000000000000000000000162500000000000113800000000000000URUA CANAVIEIRAS, 183 APTO 06                                153850002943ILHA SOLTEIRA       SP4203040543
R021985585300013320170007201473514800   OLGA BONETTI GOMES                                          14202680820   ARNALDO MUNIZ DE LIMA                                       009   01012017000000000000000000000000000000000000000000000000000000000000000000000000000000000000000000000000000000000000000000000000000000000000000000000000000000000000000000000000000000000000000000000000000000000000000000000000000000000000000000000000000000000000000000000000000000000000000000000000000000000000000775250000000000542700000000000000000000000775250000000000542700000000000000000000000775250000000000542700000000000000000000000855600000000000598900000000000000000000000000000000000000000000000000000000UAV ATLANTICA, 88                                            153850002943ILHA SOLTEIRA       SP0428631527
R021985585300013320170007301473514800   ORLGA BONETTI GOMES                                         17770903000154BENETTI E SOUZA CALCADOS LTDA EPP                           0096  01012017000000000000000000000000000000000000000000000000000000000000000000000000000000000000000000000000000000000000000000000000000000000000000000000000000000000000000000000000000000000000000000000000000000000000000000000000000000000000000000000000000000000000000000000000000000000000000000000000000000000000001738880000000001217200000000008343000000001738880000000001217200000000008343000000001738880000000001217200000000008343000000001738880000000001217200000000008343000000001738880000000001217200000000008343UAV BRASIL NORTE, 210                                        153850002943ILHA SOLTEIRA       SP0607024219
R021985585300013320170007401473514800   ORLGA BONETTI GOMES                                         00007132000145IVANIR DA SILVA FERNANDES FRANCHINI EPP                     002   01012017000000000000000000000000000000000000000000000000000000000000000000000000000000000000000000000000000000000000000000000000000000000000000000000000000000000000000000000000000000000000000000000000000000000000000000000000000000000000000000000000000000000000000000000000000000000000000000000000000000000000001663420000000001164400000000005656000000001663420000000001131100000000005656000000001663420000000001164400000000005656000000001663420000000001164400000000005656000000001663420000000001164400000000005656UAV BRASIL NORTE, 222                                        153850002943ILHA SOLTEIRA       SP0361684274
R021985585300013320170007501473514800   ORLGA BONETTI GOMES                                         65864340000106IOSHIKASU TAKASU ME                                         009   01012017000000000000000000000000000000000000000000000000000000000000000000000000000000000000000000000000000000000000000000000000000000000000000000000000000000000000000000000000000000000000000000000000000000000000000000000000000000000000000000000000000000000000000000000000000000000000000000000000000000000000000734000000000000513800000000000000000000000734000000000000513800000000000000000000000734000000000000513800000000000000000000000734000000000000513800000000000000000000000734000000000000513800000000000000UAVENIDA BRASIL NORTE, 400                                   153850002943ILHA SOLTEIRA       SP0805671386
R021985585300013320170007601473514800   ORLGA BONETTI GOMES                                         09818354818   LUCIO DE PAIVA                                              009   01012017000000000000000000000000000000000000000000000000000000000000000000000000000000000000000000000000000000000000000000000000000000000000000000000000000000000000000000000000000000000000000000000000000000000000000000000000000000000000000000000000000000000000000000000000000000000000000000000000000000000000000225000000000000157500000000000000000000000225000000000000157500000000000000000000000225000000000000157500000000000000000000000225000000000000157500000000000000000000000225000000000000157500000000000000UAV BRASIL NORTE, 400 B                                      153850002943ILHA SOLTEIRA       SP0685478108
R021985585300013320170007701473514800   OLGA BONETTI GOMES                                          05630448000102J C CARDIN CALCADOS ME                                      008   01012017000000000000000000000000000000000000000000000000000000000000000000000000000000000000000000000000000000000000000000000000000000000000000000000000000000000000000000000000000000000000000000000000000000000000000000000000000000000000000000000000000000000000000000000000000000000000000000000000000000000000000740310000000000518200000000000000000000000740310000000000518200000000000000000000000740310000000000518200000000000000000000000740310000000000518200000000000000000000000740310000000000518200000000000000UAV BRASIL NORTE, 406                                        153850002943ILHA SOLTEIRA       SP1427037488
R021985585300013320170007801473514800   ORLGA BONETTI GOMES                                         04239010608   JOSE VIRGILIO DE OLIVEIRA JUNIOR                            009   01012017000000000000000000000000000000000000000000000000000000000000000000000000000000000000000000000000000000000000000000000000000000000000000000000000000000000000000000000000000000000000000000000000000000000000000000000000000000000000000000000000000000000000000000000000000000000000000000000000000000000000000240300000000000168200000000000000000000000240300000000000168200000000000000000000000240300000000000168200000000000000000000000240300000000000168200000000000000000000000240300000000000168200000000000000UAV BRASIL NORTE, 406 A                                      153850002943ILHA SOLTEIRA       SP2122250186
R021985585300013320170007901473514800   ORLGA BONETTI GOMES                                         43070083838   LAISA FERNANDA MORAIS                                       009   01012017000000000000000000000000000000000000000000000000000000000000000000000000000000000000000000000000000000000000000000000000000000000000000000000000000000000000000000000000000000000000000000000000000000000000000000000000000000000000000000000000000000000000000000000000000000000000000000000000000000000000000225000000000000157500000000000000000000000225000000000000157500000000000000000000000225000000000000157500000000000000000000000225000000000000157500000000000000000000000225000000000000157500000000000000UAV BRASIL NORTE, 406 B                                      153850002943ILHA SOLTEIRA       SP0701656495
R021985585300013320170008001473514800   OLGA BONETTI GOMES                                          26614021877   LUCIANO ALVES DOS ANJOS                                     001   01012017000000000000000000000000000000000000000000000000000000000000000000000000000000000000000000000000000000000000000000000000000000000000000000000000000000000000000000000000000000000000000000000000000000000000000000000000000000000000000000000000000000000000000000000000000000000000000000000000000000000000000880000000000000616000000000000000000000000880000000000000616000000000000000000000000888150000000000621700000000000000000000000880000000000000616000000000000000000000000800000000000000560000000000000000UAV BRASIL NORTE, 412                                        153850002943ILHA SOLTEIRA       SP3800790081
R021985585300013320170008101473514800   OLGA BONETTI GOMES                                          34668648876   ADRIANA CARDOSO DA CRUZ                                     002   01012017000000000000000000000000000000000000000000000000000000000000000000000000000000000000000000000000000000000000000000000000000000000000000000000000000000000000000000000000000000000000000000000000000000000000000000000000000000000000000000000000000000000000000000000000000000000000000000000000000000000000000225000000000000157500000000000000000000000225000000000000157500000000000000000000000225000000000000157500000000000000000000000225000000000000157500000000000000000000000225000000000000157500000000000000UAV BRASIL NORTE, 412 A                                      153850002943ILHA SOLTEIRA       SP3242290890
R021985585300013320170008201473514800   ORLGA BONETTI GOMES                                         10955092000117LUCIA MARIA LAMEIRA ME                                      00010 01012017000000000000000000000000000000000000000000000000000000000000000000000000000000000000000000000000000000000000000000000000000000000000000000000000000000000000000000000000000000000000000000000000000000000000000000000000000000000000000000000000000000000000000000000000000000000000000000000000000000000000001555350000000001088700000000005749000000000000000000000000000000000000000000000000000000000000000000000000000000000000000000000000000000000000000000000000000000000000000000000000000000000000000000000000UAV BRASIL NORTE, 446                                        153850002943ILHA SOLTEIRA       SP1376339545
R021985585300013320170008301473514800   OLGA BONETTI GOMES                                          14180411814   NELSON GALVAO DE SOUZA                                      00055 01012017000000000000000000000000000000000000000000000000000000000000000000000000000000000000000000000000000000000000000000000000000000000000000000000000000000000000000000000000000000000000000000000000000000000000000000000000000000000000000000000000000000000000000000000000000000000000000000000000000000000000000487500000000000341300000000000000000000000539510000000000377700000000000000000000000487500000000000341300000000000000000000000487500000000000341300000000000000000000000487500000000000341300000000000000UAL MATO GROSSO, 493 BL O AP 02                              153850002943ILHA SOLTEIRA       SP0316506113
R021985585300013320170008401473514800   OLGA BONETTI GOMES                                          05773418800   MARIA APARECIDA BIANCO BERTANI                              00010 01012017000000000000000000000000000000000000000000000000000000000000000000000000000000000000000000000000000000000000000000000000000000000000000000000000000000000000000000000000000000000000000000000000000000000000000000000000000000000000000000000000000000000000000000000000000000000000000000000000000000000000000487500000000000341300000000000000000000000487500000000000341300000000000000000000000487500000000000341300000000000000000000000487500000000000341300000000000000000000000487500000000000341300000000000000UAL MATO GROSSO 493 BL O AP 03                               153850002943ILHA SOLTEIRA       SP2862721693
R021985585300013320170008501473514800   OLGA BONETTI GOMES                                          44451430810   NICOLAS MARCELO PINTO                                       0010  01012017000000000000000000000000000000000000000000000000000000000000000000000000000000000000000000000000000000000000000000000000000000000000000000000000000000000000000000000000000000000000000000000000000000000000000000000000000000000000000000000000000000000000000000000000000000000000000000000000000000000000000412500000000000288800000000000000000000000412500000000000288800000000000000000000000412500000000000288800000000000000000000000412500000000000288800000000000000000000000412500000000000288800000000000000UAL MATO GROSSO, 493 BL O AP 04                              153850002943ILHA SOLTEIRA       SP2406959463
R021985585300013320170008601473514800   ORLGA BONETTI GOMES                                         32444028872   OSVALDO ZANOVELO                                            0010  01012017000000000000000000000000000000000000000000000000000000000000000000000000000000000000000000000000000000000000000000000000000000000000000000000000000000000000000000000000000000000000000000000000000000000000000000000000000000000000000000000000000000000000000000000000000000000000000000000000000000000000000438740000000000307100000000000000000000000000000000000000000000000000000000000000000000000000000000000000000000000000000000000000000000000000000000000000000000000000000000000000000000000000000000000000UPASSEIO ROPCHEDO, 102 APTO 02                               153850002943ILHA SOLTEIRA       SP1570465653
R021985585300013320170008701473514800   OLGA BONETTI GOMES                                          54298652149   OTAVIO FERREIRA DE MEDEIROS NETTO                           008   01012017000000000000000000000000000000000000000000000000000000000000000000000000000000000000000000000000000000000000000000000000000000000000000000000000000000000000000000000000000000000000000000000000000000000000000000000000000000000000000000000000000000000000000000000000000000000000000000000000000000000000000487500000000000341300000000000000000000000487500000000000341300000000000000000000000487500000000000341300000000000000000000000487500000000000341300000000000000000000000487500000000000341300000000000000UPASSEIO ROCHEDO, 102 APTO 03                                153850002943ILHA SOLTEIRA       SP0245924418
R021985585300013320170008801473514800   OLGA BONETTI GOMES                                          11501844857   ELIANE OLIVEIRA RODRIGUES MUNHOZ                            0010  01012017000000000000000000000000000000000000000000000000000000000000000000000000000000000000000000000000000000000000000000000000000000000000000000000000000000000000000000000000000000000000000000000000000000000000000000000000000000000000000000000000000000000000000000000000000000000000000000000000000000000000000367500000000000257300000000000000000000000367500000000000257300000000000000000000000367500000000000257300000000000000000000000367500000000000257300000000000000000000000551250000000000385900000000000000URUA CANAVIEIRAS, 163 APTO 01                                153850002943ILHA SOLTEIRA       SP1331409946
R021985585300013320170008901473514800   OLGA BONETTI GOMES                                          15071105888   REGIANE MAXIMO DE SOUZA                                     0080  01012017000000000000000000000000000000000000000000000000000000000000000000000000000000000000000000000000000000000000000000000000000000000000000000000000000000000000000000000000000000000000000000000000000000000000000000000000000000000000000000000000000000000000000000000000000000000000000000000000000000000000000465000000000000325500000000000000000000000465000000000000325500000000000000000000000465000000000000325500000000000000000000000465000000000000325500000000000000000000000465000000000000325500000000000000URUA CANAVIEIRAS, 163 APTO 02                                153850002943ILHA SOLTEIRA       SP0580460369
R021985585300013320170009001473514800   OLGA BONETTI GOMES                                          29710635859   DANIELA HARUMI FUJIMOTO                                     00100 01012017000000000000000000000000000000000000000000000000000000000000000000000000000000000000000000000000000000000000000000000000000000000000000000000000000000000000000000000000000000000000000000000000000000000000000000000000000000000000000000000000000000000000000000000000000000000000000000000000000000000000000394500000000000276200000000000000000000000394500000000000276200000000000000000000000394500000000000276200000000000000000000000394500000000000276200000000000000000000000394500000000000276200000000000000URUA CANAVIEIRAS, 163 APTO 03                                153850002943ILHA SOLTEIRA       SP1642465360
R021985585300013320170009101473514800   OLGA BONETTI GOMES                                          40966603885   JORDAN HENRIQUE MATOS DE SOUZA                              008   01012017000000000000000000000000000000000000000000000000000000000000000000000000000000000000000000000000000000000000000000000000000000000000000000000000000000000000000000000000000000000000000000000000000000000000000000000000000000000000000000000000000000000000000000000000000000000000000000000000000000000000000465000000000000325500000000000000000000000465000000000000325500000000000000000000000465000000000000325500000000000000000000000465000000000000325500000000000000000000000465000000000000325500000000000000URUA CANAVIEIRAS, 163 APTO 04                                153850002943ILHA SOLTEIRA       SP0645880759
R021985585300013320170009201473514800   OLGA BONETTI GOMES                                          11745505890   ERIVELTON ADRIANI BERTOLETTI                                0011  01012017000000000000000000000000000000000000000000000000000000000000000000000000000000000000000000000000000000000000000000000000000000000000000000000000000000000000000000000000000000000000000000000000000000000000000000000000000000000000000000000000000000000000000000000000000000000000000000000000000000000000000450000000000000315000000000000000000000000450000000000000315000000000000000000000000450000000000000315000000000000000000000000450000000000000315000000000000000000000000450000000000000315000000000000000URUA CANAVIEIRAS, 163 APTO 06                                153850002943ILHA SOLTEIRA       SP1219038368
R021985585300013320170009301473514800   OLGA BONETTI GOMES                                          16429389804   JOSE JORGE GIOVANINI                                        0010  01012017000000000000000000000000000000000000000000000000000000000000000000000000000000000000000000000000000000000000000000000000000000000000000000000000000000000000000000000000000000000000000000000000000000000000000000000000000000000000000000000000000000000000000000000000000000000000000000000000000000000000000417750000000000292400000000000000000000000417750000000000292400000000000000000000000793720000000000555600000000000000000000000000000000000000000000000000000000000000000000000000000000000000000000000000URUA CANAVIEIRAS, 163 APTO 07                                153850002943ILHA SOLTEIRA       SP3418495645
R021985585300013320170009401473514800   ORLGA BONETTI GOMES                                         35635113818   ROGERIO BORAZZO                                             0010  01012017000000000000000000000000000000000000000000000000000000000000000000000000000000000000000000000000000000000000000000000000000000000000000000000000000000000000000000000000000000000000000000000000000000000000000000000000000000000000000000000000000000000000000000000000000000000000000000000000000000000000000390000000000000273000000000000000000000000390000000000000273000000000000000000000000390000000000000273000000000000000000000000390000000000000273000000000000000000000000000000000000000000000000000000000URUA CANAVIEIRAS, 163 APTO 09                                153850002943ILHA SOLTEIRA       SP3370487803
R021985585300013320170009501473514800   ORLGA BONETTI GOMES                                         78656427849   GILBERTO CONTIERO VILA                                      0080  01012017000000000000000000000000000000000000000000000000000000000000000000000000000000000000000000000000000000000000000000000000000000000000000000000000000000000000000000000000000000000000000000000000000000000000000000000000000000000000000000000000000000000000000000000000000000000000000000000000000000000000000487500000000000341300000000000000000000000487500000000000341300000000000000000000000487500000000000341300000000000000000000000487500000000000341300000000000000000000000487500000000000341300000000000000URUA CANAVIEIRAS, 163 APTO 10                                153850002943ILHA SOLTEIRA       SP3813566826
R021985585300013320170009601473514800   OLGA BONETTI GOMES                                          24741131858   SEVERINA MARQUES VALADAO                                    0055  01012017000000000000000000000000000000000000000000000000000000000000000000000000000000000000000000000000000000000000000000000000000000000000000000000000000000000000000000000000000000000000000000000000000000000000000000000000000000000000000000000000000000000000000000000000000000000000000000000000000000000000000390000000000000273000000000000000000000000494000000000000345800000000000000000000000104000000000000072800000000000000000000000000000000000000000000000000000000000000000000000000000000000000000000000000URUA CANAVIEIRAS 163 APTO 11                                 153850002943ILHA SOLTEIRA       SP1325592112
R021985585300013320170009701473514800   OLGA BONETTI GOMES                                          14417841870   REGIS WILLIAN DE LIMA CAVASSANO                             0080  01012017000000000000000000000000000000000000000000000000000000000000000000000000000000000000000000000000000000000000000000000000000000000000000000000000000000000000000000000000000000000000000000000000000000000000000000000000000000000000000000000000000000000000000000000000000000000000000000000000000000000000000390000000000000273000000000000000000000000390000000000000000000000000000000000000000435890000000000305100000000000000000000000432830000000000303000000000000000000000000432830000000000303000000000000000URUA CANAVIEIRAS, 171 APTO 01                                153850002943ILHA SOLTEIRA       SP2854426108
R021985585300013320170009801473514800   OLGA BONETTI GOMES                                          06722446832   NAGE OMAR                                                   0090  01012017000000000000000000000000000000000000000000000000000000000000000000000000000000000000000000000000000000000000000000000000000000000000000000000000000000000000000000000000000000000000000000000000000000000000000000000000000000000000000000000000000000000000000000000000000000000000000000000000000000000000000487500000000000341300000000000000000000000487500000000000341300000000000000000000000487500000000000341300000000000000000000000487500000000000341300000000000000000000000487500000000000341300000000000000URUA CANAVIEIRAS, 171 APTO 02                                153850002943ILHA SOLTEIRA       SP0141842338
R021985585300013320170009901473514800   OLGA BONETTI GOMES                                          44268631801   BRUNA MIGUEL CARDOSO                                        002   01012017000000000000000000000000000000000000000000000000000000000000000000000000000000000000000000000000000000000000000000000000000000000000000000000000000000000000000000000000000000000000000000000000000000000000000000000000000000000000000000000000000000000000000000000000000000000000000000000000000000000000000367500000000000257300000000000000000000000367500000000000257300000000000000000000000367500000000000257300000000000000000000000367500000000000257300000000000000000000000367500000000000257300000000000000URUA CANAVIEIRAS, 171 APTO 03                                153850002943ILHA SOLTEIRA       SP0433497228
R021985585300013320170010001473514800   OLGA BONETTI GOMES                                          37835239825   BEATRIZ PEREIRA                                             009   01012017000000000000000000000000000000000000000000000000000000000000000000000000000000000000000000000000000000000000000000000000000000000000000000000000000000000000000000000000000000000000000000000000000000000000000000000000000000000000000000000000000000000000000000000000000000000000000000000000000000000000000390000000000000273000000000000000000000000390000000000000273000000000000000000000000390000000000000273000000000000000000000000390000000000000273000000000000000000000000465000000000000325500000000000000URUA CANAVIEIRAS, 171 APTO 05                                153850002943ILHA SOLTEIRA       SP1214903109
R021985585300013320170010101473514800   OLGA BONETTI GOMES                                          40333400178   CLEZIO ANTONIO LARA                                         009   01012017000000000000000000000000000000000000000000000000000000000000000000000000000000000000000000000000000000000000000000000000000000000000000000000000000000000000000000000000000000000000000000000000000000000000000000000000000000000000000000000000000000000000000000000000000000000000000000000000000000000000000465000000000000325500000000000000000000000000000000000000000000000000000000000000000981510000000000687100000000000000000000000465000000000000325500000000000000000000000390000000000000273000000000000000URUA CANAVIEIRAS, 171 APTO 06                                153850002943ILHA SOLTEIRA       SP2718475273
R021985585300013320170010201473514800   OLGA BONETTI GOMES                                          27206912168   IOLANDA CARNEIRO DE BARROS SIQUEIRA                         0101  01012017000000000000000000000000000000000000000000000000000000000000000000000000000000000000000000000000000000000000000000000000000000000000000000000000000000000000000000000000000000000000000000000000000000000000000000000000000000000000000000000000000000000000000000000000000000000000000000000000000000000000000390000000000000273000000000000000000000000390000000000000273000000000000000000000000390000000000000273000000000000000000000000390000000000000273000000000000000000000000487500000000000341300000000000000URUA CANAVIEIRAS, 171 APTO 07                                153850002943ILHA SOLTEIRA       SP3608441709
R021985585300013320170010301473514800   ORLGA BONETTI GOMES                                         70849382904   MARIA IEDA PIGA ZAGO                                        01    01012017000000000000000000000000000000000000000000000000000000000000000000000000000000000000000000000000000000000000000000000000000000000000000000000000000000000000000000000000000000000000000000000000000000000000000000000000000000000000000000000000000000000000000000000000000000000000000000000000000000000000000487500000000000341300000000000000000000000287500000000000341300000000000000000000000487500000000000341300000000000000000000000487500000000000341300000000000000000000000000000000000000000000000000000000URUA CANAVIEIRAS, 171 APTO 08                                153850002943ILHA SOLTEIRA       SP3729188405
R021985585300013320170010401473514800   OLGA BONETTI GOMES                                          65269381168   LUCIMAR APARECIDA DA SILVA                                  008   01012017000000000000000000000000000000000000000000000000000000000000000000000000000000000000000000000000000000000000000000000000000000000000000000000000000000000000000000000000000000000000000000000000000000000000000000000000000000000000000000000000000000000000000000000000000000000000000000000000000000000000000420000000000000294000000000000000000000000420000000000000294000000000000000000000000420000000000000294000000000000000000000000420000000000000294000000000000000000000000367500000000000257300000000000000URUA CANAVIEIRAS, 171 APTO 10                                153850002943ILHA SOLTEIRA       SP2887452658
R021985585300013320170010501473514800   OLGA BONETTI GOMES                                          37321176851   LUIZA PERRONI FAGUNDES                                      010   01012017000000000000000000000000000000000000000000000000000000000000000000000000000000000000000000000000000000000000000000000000000000000000000000000000000000000000000000000000000000000000000000000000000000000000000000000000000000000000000000000000000000000000000000000000000000000000000000000000000000000000000367500000000000257300000000000000000000000367500000000000257300000000000000000000000367500000000000257300000000000000000000000367500000000000257300000000000000000000000000000000000000000000000000000000URUA CANAVIEIRAS, 171 APTO 11                                153850002943ILHA SOLTEIRA       SP0083128609
R021985585300013320170010601473514800   OLGA BONETTI GOMES                                          34177900850   THIAGO FRANCISCO SILVA TRENTIN                              0052  01012017000000000000000000000000000000000000000000000000000000000000000000000000000000000000000000000000000000000000000000000000000000000000000000000000000000000000000000000000000000000000000000000000000000000000000000000000000000000000000000000000000000000000000000000000000000000000000000000000000000000000000487500000000000341300000000000000000000000487500000000000341300000000000000000000000487500000000000341300000000000000000000000487500000000000341300000000000000000000000487500000000000341300000000000000URUA CANAVIEIRAS, 171 APTO 12                                153850002943ILHA SOLTEIRA       SP4091685428
R021985585300013320170010701473514800   OLGA BONETTI GOMES                                          70366241834   EGBERTO SILVESTRE HEIN                                      0086  01012017000000000000000000000000000000000000000000000000000000000000000000000000000000000000000000000000000000000000000000000000000000000000000000000000000000000000000000000000000000000000000000000000000000000000000000000000000000000000000000000000000000000000000000000000000000000000000000000000000000000000000487500000000000341300000000000000000000000487500000000000341300000000000000000000000487500000000000341300000000000000000000000487500000000000341300000000000000000000000487500000000000341300000000000000URUA CANAVIEIRAS, 183 , APTO 01                              153850002943ILHA SOLTEIRA       SP1251459870
R021985585300013320170010801473514800   OLGA BONETTI GOMES                                          10393393879   VICENTE LUIZ SCALON                                         089   01012017000000000000000000000000000000000000000000000000000000000000000000000000000000000000000000000000000000000000000000000000000000000000000000000000000000000000000000000000000000000000000000000000000000000000000000000000000000000000000000000000000000000000000000000000000000000000000000000000000000000000000487500000000000341300000000000000000000000487500000000000341300000000000000000000000487500000000000341300000000000000000000000487500000000000341300000000000000000000000000000000000000000000000000000000URUA CANAVIEIRAS, 183 APTO 02                                153850002943ILHA SOLTEIRA       SP2633945342
R021985585300013320170010901473514800   OLGA BONETTI GOMES                                          59548339153   SANDRO SHIGUEO WAGATUMA                                     0090  01012017000000000000000000000000000000000000000000000000000000000000000000000000000000000000000000000000000000000000000000000000000000000000000000000000000000000000000000000000000000000000000000000000000000000000000000000000000000000000000000000000000000000000000000000000000000000000000000000000000000000000000465000000000000325500000000000000000000000465000000000000325500000000000000000000000465000000000000325500000000000000000000000465000000000000325500000000000000000000000450000000000000315000000000000000URUA CANAVIEIRAS, 183 APTO 04                                153850002943ILHA SOLTEIRA       SP1049881373
R021985585300013320170011001473514800   OLGA BONETTI GOMES                                          09293050862   NILZA CRISTINA BONADIO FRANCO GIRARDI                       0080  01012017000000000000000000000000000000000000000000000000000000000000000000000000000000000000000000000000000000000000000000000000000000000000000000000000000000000000000000000000000000000000000000000000000000000000000000000000000000000000000000000000000000000000000000000000000000000000000000000000000000000000000487500000000000341300000000000000000000000487500000000000341300000000000000000000000487500000000000341300000000000000000000000487500000000000341300000000000000000000000465000000000000325500000000000000URUA CANAVIEIRAS, 183 APTO 05                                153850002943ILHA SOLTEIRA       SP0947668725
R021985585300013320170011101473514800   OLGA BONETTI GOMES                                          70292070179   VITORIA ALVES FIGUEIREDO                                    00100 01012017000000000000000000000000000000000000000000000000000000000000000000000000000000000000000000000000000000000000000000000000000000000000000000000000000000000000000000000000000000000000000000000000000000000000000000000000000000000000000000000000000000000000000000000000000000000000000000000000000000000000000487500000000000341300000000000000000000000536570000000000375600000000000000000000001024070000000000716900000000000000000000000487500000000000341300000000000000000000000487500000000000341300000000000000URUA CANAVIEIRAS, 183 APTO 06                                153850002943ILHA SOLTEIRA       SP1597716258
R021985585300013320170011201473514800   OLGA BONETTI GOMES                                          74241931634   JOSE PIRES                                                  100   01012017000000000000000000000000000000000000000000000000000000000000000000000000000000000000000000000000000000000000000000000000000000000000000000000000000000000000000000000000000000000000000000000000000000000000000000000000000000000000000000000000000000000000000000000000000000000000000000000000000000000000000487500000000000341300000000000000000000000487500000000000341300000000000000000000000487500000000000341300000000000000000000000487500000000000341300000000000000000000000487500000000000341300000000000000URUA CANAVIEIRAS, 183 APTO 07                                153850002943ILHA SOLTEIRA       SP3781371988
R021985585300013320170011301473514800   OLGA BONETTI GOMES                                          43598935820   ELVYS SILVA TORRES NOGUEIRA                                 0200  01012017000000000000000000000000000000000000000000000000000000000000000000000000000000000000000000000000000000000000000000000000000000000000000000000000000000000000000000000000000000000000000000000000000000000000000000000000000000000000000000000000000000000000000000000000000000000000000000000000000000000000000487500000000000341300000000000000000000000487500000000000341300000000000000000000000487500000000000341300000000000000000000000487500000000000341300000000000000000000000487500000000000341300000000000000URUA CANAVIEIRAS, 183 APTO 08                                153850002943ILHA SOLTEIRA       SP1615767581
R021985585300013320170011401473514800   OLGA BONETTI GOMES                                          35249456863   FERNANDO GASPAR PIVARO                                      020   01012017000000000000000000000000000000000000000000000000000000000000000000000000000000000000000000000000000000000000000000000000000000000000000000000000000000000000000000000000000000000000000000000000000000000000000000000000000000000000000000000000000000000000000000000000000000000000000000000000000000000000000487500000000000341300000000000000000000000487500000000000341300000000000000000000000487500000000000341300000000000000000000000487500000000000341300000000000000000000000487500000000000341300000000000000URUA CANAVIEIRAS, 183 APTO 09                                153850002943ILHA SOLTEIRA       SP1218227038
R021985585300013320170011501473514800   OLGA BONETTI GOMES                                          18455372893   RENATA CRISTINA C A FERREIRA                                0201  01012017000000000000000000000000000000000000000000000000000000000000000000000000000000000000000000000000000000000000000000000000000000000000000000000000000000000000000000000000000000000000000000000000000000000000000000000000000000000000000000000000000000000000000000000000000000000000000000000000000000000000000465000000000000325500000000000000000000000465000000000000325500000000000000000000000465000000000000325500000000000000000000000465000000000000325500000000000000000000000465000000000000325500000000000000URUA CANAVIEIRAS, 183 APTO 10                                153850002943ILHA SOLTEIRA       SP0165210375
R021985585300013320170011601473514800   OLGA BONETTI GOMES                                          36829950805   CARLA JAQUELINE CASTELLANI                                  00202 01012017000000000000000000000000000000000000000000000000000000000000000000000000000000000000000000000000000000000000000000000000000000000000000000000000000000000000000000000000000000000000000000000000000000000000000000000000000000000000000000000000000000000000000000000000000000000000000000000000000000000000000487500000000000341300000000000000000000000487500000000000341300000000000000000000000487500000000000341300000000000000000000000487500000000000341300000000000000000000000000000000000000000000000000000000URUA CANAVIEIRAS, 183  APTO 11                               153850002943ILHA SOLTEIRA       SP2770755087
R021985585300013320170011701473514800   OLGA BONETTI GOMES                                          10493632808   DENISE APARECIDA ZAMPIEIR COGNETTE                          0205  01012017000000000000000000000000000000000000000000000000000000000000000000000000000000000000000000000000000000000000000000000000000000000000000000000000000000000000000000000000000000000000000000000000000000000000000000000000000000000000000000000000000000000000000000000000000000000000000000000000000000000000000465000000000000325500000000000000000000000465000000000000325500000000000000000000000465000000000000325500000000000000000000000465000000000000325500000000000000000000000465000000000000325500000000000000URUA CANAVIEIRAS, 183 APTO 12                                153850002943ILHA SOLTEIRA       SP1592207237
R021985585300013320170011801473514800   OLGA BONETTI GOMES                                          20543315894   FABIANA APARECIDA DO NASCIMENTO SOARES                      0205  01012017000000000000000000000000000000000000000000000000000000000000000000000000000000000000000000000000000000000000000000000000000000000000000000000000000000000000000000000000000000000000000000000000000000000000000000000000000000000000000000000000000000000000000000000000000000000000000000000000000000000000000412500000000000288800000000000000000000000412500000000000288800000000000000000000000412500000000000288800000000000000000000000412500000000000288800000000000000000000000412500000000000288800000000000000URUA ILHEUS, 176 BLOCO A APTO 01                             153850002943ILHA SOLTEIRA       SP0879915012
R021985585300013320170011901473514800   OLGA BONETTI GOMES                                          06747168844   PEDRO SALIS                                                 025   01012017000000000000000000000000000000000000000000000000000000000000000000000000000000000000000000000000000000000000000000000000000000000000000000000000000000000000000000000000000000000000000000000000000000000000000000000000000000000000000000000000000000000000000000000000000000000000000000000000000000000000000442500000000000309800000000000000000000000442500000000000309800000000000000000000000442500000000000309800000000000000000000000442500000000000309800000000000000000000000442500000000000309800000000000000URUA ILHEUS, 176 BLOCO A APTO 02                             153850002943ILHA SOLTEIRA       SP1165872093
R021985585300013320170012001473514800   OLGA BONETTI GOMES                                          02381791841   SIDNEI LUIZ GARCIA                                          00205 01012017000000000000000000000000000000000000000000000000000000000000000000000000000000000000000000000000000000000000000000000000000000000000000000000000000000000000000000000000000000000000000000000000000000000000000000000000000000000000000000000000000000000000000000000000000000000000000000000000000000000000000502500000000000351800000000000000000000000502500000000000351800000000000000000000000000000000000000000000000000000000000000000000000000000000000000000000000000000000000000000000000000000000000000000000URUA ILHEUS 176, BLOCO A APTO 03                             153850002943ILHA SOLTEIRA       SP3733672170
R021985585300013320170012101473514800   OLGA BONETTI GOMES                                          11385793864   MARCELO EDUARDO DANIEL                                      00200 01012017000000000000000000000000000000000000000000000000000000000000000000000000000000000000000000000000000000000000000000000000000000000000000000000000000000000000000000000000000000000000000000000000000000000000000000000000000000000000000000000000000000000000000000000000000000000000000000000000000000000000000502500000000000351800000000000000000000000502500000000000351800000000000000000000000502500000000000351800000000000000000000000502500000000000351800000000000000000000000502500000000000351800000000000000URUA ILHEUS, 176 BLOCO B, APTO 01                            153850002943ILHA SOLTEIRA       SP1558042960
R021985585300013320170012201473514800   OLGA BONETTI GOMES                                          43349410871   GUILHERME AUGUSTO MARTINS                                   0205  01012017000000000000000000000000000000000000000000000000000000000000000000000000000000000000000000000000000000000000000000000000000000000000000000000000000000000000000000000000000000000000000000000000000000000000000000000000000000000000000000000000000000000000000000000000000000000000000000000000000000000000000442500000000000309800000000000000000000000442500000000000309800000000000000000000000442500000000000309800000000000000000000000442500000000000309800000000000000000000000442500000000000309800000000000000URUA REMANSO, 186 APTO 02                                    153850002943ILHA SOLTEIRA       SP2562330652
R021985585300013320170012301473514800   OLGA BONETTI GOMES                                          44426105846   THIAGO ALMEIDA BUENO                                        0200  01012017000000000000000000000000000000000000000000000000000000000000000000000000000000000000000000000000000000000000000000000000000000000000000000000000000000000000000000000000000000000000000000000000000000000000000000000000000000000000000000000000000000000000000000000000000000000000000000000000000000000000000465000000000000325500000000000000000000000465000000000000325500000000000000000000000465000000000000325500000000000000000000000465000000000000325500000000000000000000000465000000000000325500000000000000URUA REMANSO, 186 APTO 03                                    153850002943ILHA SOLTEIRA       SP1590023330
R021985585300013320170012401473514800   OLGA BONETTI GOMES                                          01903260850   SIRLEI APARECIDA GOMES MIRON                                050   01012017000000000000000000000000000000000000000000000000000000000000000000000000000000000000000000000000000000000000000000000000000000000000000000000000000000000000000000000000000000000000000000000000000000000000000000000000000000000000000000000000000000000000000000000000000000000000000000000000000000000000000487500000000000341300000000000000000000000487500000000000341300000000000000000000000487500000000000341300000000000000000000000487500000000000341300000000000000000000000487500000000000341300000000000000URUA REMANSO, 186 APTO 04                                    153850002943ILHA SOLTEIRA       SP0498508662
