DIMOB       201817250198558530001332260STELA RICCIARDI                                             SP333316730410055706878820000000000000000000061343736033302                                                                                                                                                                                                              3274954419
R011985585300013320180000000000000000000000STELA RICCIARDI                                             55706878820BRASIL SUL  439, ZONA SUL                                                                                               SP2943ILHA SOLTEIRA                                           11892622853
R021985585300013320180000125277200134   ADDIL WANSA                                                 02424770891   GIOVANI FONTOLAN                                            1     01012018000000000800000000000000800000000000000000000000000000000000000000000000000000000000000000000000000000000000000000000000000000000000000000000000000000000000000000000000000000000000000000000000000000000000000000000000000000000000000000000000000000000000000000000000000000000000000000000000000000000000000000000000000000000000000000000000000000000000000000000000000000000000000000000000000000000000000000000000000000000000000000000000000000000000000000000000000000000000000000000000000000000000000000000000UPASSEIO LAMBARI, 304                                        153850002943ILHA SOLTEIRA       SP1853862444
R021985585300013320180000225277200134   ADDIL WANSA                                                 04044012873   JOSE JOAQUIM SERGIO                                         1     01012018000000000447670000000000447700000000000000000000000000000000000000000000000000000000000000000000000000000000000000000000000000000000000000000000000000000000000000000000000000000000000000000000000000000000000000000000000000000000000000000000000000000000000000000000000000000000000000000000000000000000000000000000000000000000000000000000000000000000000000000000000000000000000000000000000000000000000000000000000000000000000000000000000000000000000000000000000000000000000000000000000000000000000000000000UPASSEIO OURO PRETO, 203                                     153850002943ILHA SOLTEIRA       SP3010046240
R021985585300013320180000325277200134   ADDIL WANSA                                                 07852976859   JOANA DA SILVA GONCALVES SERGIO                             1     01012018000000000447670000000000447700000000000000000000000000000000000000000000000000000000000000000000000000000000000000000000000000000000000000000000000000000000000000000000000000000000000000000000000000000000000000000000000000000000000000000000000000000000000000000000000000000000000000000000000000000000000000000000000000000000000000000000000000000000000000000000000000000000000000000000000000000000000000000000000000000000000000000000000000000000000000000000000000000000000000000000000000000000000000000000UPASSEIO OURO PRETO, 203                                     153850002943ILHA SOLTEIRA       SP3302289069
R021985585300013320180000421854334824   SILVANA MARTINEZ WANSA                                      02424770891   GIOVANI FONTOLAN                                            1     01012018000000000800000000000000800000000000000000000000000000000000000000000000000000000000000000000000000000000000000000000000000000000000000000000000000000000000000000000000000000000000000000000000000000000000000000000000000000000000000000000000000000000000000000000000000000000000000000000000000000000000000000000000000000000000000000000000000000000000000000000000000000000000000000000000000000000000000000000000000000000000000000000000000000000000000000000000000000000000000000000000000000000000000000000000UPASSEIO LAMBARI, 304                                        153850002943ILHA SOLTEIRA       SP1945885678
R021985585300013320180000521854334824   SILVANA MARTINEZ WANSA                                      04044012873   JOSE JOAQUIM SERGIO                                         1     01012018000000000447670000000000446700000000000000000000000000000000000000000000000000000000000000000000000000000000000000000000000000000000000000000000000000000000000000000000000000000000000000000000000000000000000000000000000000000000000000000000000000000000000000000000000000000000000000000000000000000000000000000000000000000000000000000000000000000000000000000000000000000000000000000000000000000000000000000000000000000000000000000000000000000000000000000000000000000000000000000000000000000000000000000000UPASSEIO OURO PRETO, 203                                     153850002943ILHA SOLTEIRA       SP1441180181
R021985585300013320180000621854334824   SILVANA MARTINEZ WANSA                                      07852976859   JOANA DA SILVA GONCALVES SERGIO                             1     01012018000000000447670000000000446700000000000000000000000000000000000000000000000000000000000000000000000000000000000000000000000000000000000000000000000000000000000000000000000000000000000000000000000000000000000000000000000000000000000000000000000000000000000000000000000000000000000000000000000000000000000000000000000000000000000000000000000000000000000000000000000000000000000000000000000000000000000000000000000000000000000000000000000000000000000000000000000000000000000000000000000000000000000000000000UPASSEIO OURO PRETO, 203                                     153850002943ILHA SOLTEIRA       SP3096623265
R021985585300013320180000798152351849   APARECIDA JESUS TROMBETA DA SILVA                           59754648000104MUNICIPIO DA ESTANCIA TURISTICA DE ILHA SOLTEIRA            1     01012018000000001400000000000001400000000000000000000000000000000000000000000000000000000000000000000000000000000000000000000000000000000000000000000000000000000000000000000000000000000000000000000000000000000000000000000000000000000000000000000000000000000000000000000000000000000000000000000000000000000000000000000000000000000000000000000000000000000000000000000000000000000000000000000000000000000000000000000000000000000000000000000000000000000000000000000000000000000000000000000000000000000000000000000000UPASSEIO MANAUS, 404                                         153850002943ILHA SOLTEIRA       SP2603121860
R021985585300013320180000831314767887   ARMANDO MAZOTTI                                             94322724191   NAIR ALVES LACERDA                                          1     01012018000000000681500000000000681500000000000000000000000000000000000000000000000000000000000000000000000000000000000000000000000000000000000000000000000000000000000000000000000000000000000000000000000000000000000000000000000000000000000000000000000000000000000000000000000000000000000000000000000000000000000000000000000000000000000000000000000000000000000000000000000000000000000000000000000000000000000000000000000000000000000000000000000000000000000000000000000000000000000000000000000000000000000000000000UPASSEIO SANTOS, 305                                         153850002943ILHA SOLTEIRA       SP0295670896
R021985585300013320180000931314767887   ARMANDO MAZOTTI                                             39047509846   JAVA SERENO BANDEIRA ANTUNES                                1     01012018000000000900000000000000900000000000000000000000000000000000000000000000000000000000000000000000000000000000000000000000000000000000000000000000000000000000000000000000000000000000000000000000000000000000000000000000000000000000000000000000000000000000000000000000000000000000000000000000000000000000000000000000000000000000000000000000000000000000000000000000000000000000000000000000000000000000000000000000000000000000000000000000000000000000000000000000000000000000000000000000000000000000000000000000UPASSEIO BARRAS, 310                                         153850002943ILHA SOLTEIRA       SP2866540087
R021985585300013320180001001278630953   CLAUDIO BENTO GONCALVES                                     08397003000112SEBASTIAO BORGES DE CARVALHO - ME                           1     01012018000000001182500000000001182500000000000000000000000000000000000000000000000000000000000000000000000000000000000000000000000000000000000000000000000000000000000000000000000000000000000000000000000000000000000000000000000000000000000000000000000000000000000000000000000000000000000000000000000000000000000000000000000000000000000000000000000000000000000000000000000000000000000000000000000000000000000000000000000000000000000000000000000000000000000000000000000000000000000000000000000000000000000000000000UAVENIDA BRASIL NORTE, 318                                   153850002943ILHA SOLTEIRA       SP0610177721
R021985585300013320180001101278630953   CLAUDIO BENTO GONCALVES                                     09333619801   EDUARDO FERNANDO MARTINS RAMOS                              1     01012018000000000595000000000000595000000000000000000000000000000000000000000000000000000000000000000000000000000000000000000000000000000000000000000000000000000000000000000000000000000000000000000000000000000000000000000000000000000000000000000000000000000000000000000000000000000000000000000000000000000000000000000000000000000000000000000000000000000000000000000000000000000000000000000000000000000000000000000000000000000000000000000000000000000000000000000000000000000000000000000000000000000000000000000000UAVENIDA BRASIL NORTE, 318 B                                 153850002943ILHA SOLTEIRA       SP0317508491
R021985585300013320180001201278630953   CLAUDIO BENTO GONCALVES                                     31883391865   LUCAS DE LIMA RODRIGUES                                     1     01012018000000000650000000000000650000000000000000000000000000000000000000000000000000000000000000000000000000000000000000000000000000000000000000000000000000000000000000000000000000000000000000000000000000000000000000000000000000000000000000000000000000000000000000000000000000000000000000000000000000000000000000000000000000000000000000000000000000000000000000000000000000000000000000000000000000000000000000000000000000000000000000000000000000000000000000000000000000000000000000000000000000000000000000000000UAVENIDA BRASIL NORTE, 318 C                                 153850002943ILHA SOLTEIRA       SP3997613178
R021985585300013320180001301278630953   CLAUDIO BENTO GONCALVES                                     04133305000122PITAGORAS RUIZ PEREIRA - ILHA SOLTEIRA - ME                 1     01012018000000000580310000000000580300000000000000000000000000000000000000000000000000000000000000000000000000000000000000000000000000000000000000000000000000000000000000000000000000000000000000000000000000000000000000000000000000000000000000000000000000000000000000000000000000000000000000000000000000000000000000000000000000000000000000000000000000000000000000000000000000000000000000000000000000000000000000000000000000000000000000000000000000000000000000000000000000000000000000000000000000000000000000000000UAVENIDA BRASIL NORTE, 318 D                                 153850002943ILHA SOLTEIRA       SP0974075799
R021985585300013320180001401278630953   CLAUDIO BENTO GONCALVES                                     80316140830   SEBASTIAO BORGES DE CARVALHO                                1     01012018000000000785500000000000785500000000000000000000000000000000000000000000000000000000000000000000000000000000000000000000000000000000000000000000000000000000000000000000000000000000000000000000000000000000000000000000000000000000000000000000000000000000000000000000000000000000000000000000000000000000000000000000000000000000000000000000000000000000000000000000000000000000000000000000000000000000000000000000000000000000000000000000000000000000000000000000000000000000000000000000000000000000000000000000UAVENIDA BRASIL NORTE, 318 E                                 153850002943ILHA SOLTEIRA       SP0329756145
R021985585300013320180001501278630953   CLAUDIO BENTO GONCALVES                                     66173295000106ILHA TINTAS LTDA - ME                                       1     01012018000000001312270000000001312200000000000000000000000000000000000000000000000000000000000000000000000000000000000000000000000000000000000000000000000000000000000000000000000000000000000000000000000000000000000000000000000000000000000000000000000000000000000000000000000000000000000000000000000000000000000000000000000000000000000000000000000000000000000000000000000000000000000000000000000000000000000000000000000000000000000000000000000000000000000000000000000000000000000000000000000000000000000000000000UAVENIDA BRASIL SUL, 403                                     153850002943ILHA SOLTEIRA       SP2169309390
R021985585300013320180001601278630953   CLAUDIO BENTO GONCALVES                                     33919052803   FERNANDO HENRIQUE DE OLIVEIRA CAMARA                        1     01012018000000000370000000000000370000000000000000000000000000000000000000000000000000000000000000000000000000000000000000000000000000000000000000000000000000000000000000000000000000000000000000000000000000000000000000000000000000000000000000000000000000000000000000000000000000000000000000000000000000000000000000000000000000000000000000000000000000000000000000000000000000000000000000000000000000000000000000000000000000000000000000000000000000000000000000000000000000000000000000000000000000000000000000000000UPASSEIO OLINDA, 322                                         153850002943ILHA SOLTEIRA       SP1111324169
R021985585300013320180001701278630953   CLAUDIO BENTO GONCALVES                                     06861055832   ANTONIO CARLOS CARNIO                                       1     01012018000000000747850000000000747800000000000000000000000000000000000000000000000000000000000000000000000000000000000000000000000000000000000000000000000000000000000000000000000000000000000000000000000000000000000000000000000000000000000000000000000000000000000000000000000000000000000000000000000000000000000000000000000000000000000000000000000000000000000000000000000000000000000000000000000000000000000000000000000000000000000000000000000000000000000000000000000000000000000000000000000000000000000000000000UPASSEIO PARANAGUA, 303                                      153850002943ILHA SOLTEIRA       SP3598742100
R021985585300013320180001805210450880   IVANILDE VARGAS MAGHETAS GONCALVES                          08397003000112SEBASTIAO BORGES DE CARVALHO - ME                           1     01012018000000001182500000000001182500000000000000000000000000000000000000000000000000000000000000000000000000000000000000000000000000000000000000000000000000000000000000000000000000000000000000000000000000000000000000000000000000000000000000000000000000000000000000000000000000000000000000000000000000000000000000000000000000000000000000000000000000000000000000000000000000000000000000000000000000000000000000000000000000000000000000000000000000000000000000000000000000000000000000000000000000000000000000000000UAVENIDA BRASIL NORTE, 318                                   153850002943ILHA SOLTEIRA       SP4057311521
R021985585300013320180001905210450880   IVANILDE VARGAS MAGHETAS GONCALVES                          09333619801   EDUARDO FERNANDO MARTINS RAMOS                              1     01012018000000000595000000000000595000000000000000000000000000000000000000000000000000000000000000000000000000000000000000000000000000000000000000000000000000000000000000000000000000000000000000000000000000000000000000000000000000000000000000000000000000000000000000000000000000000000000000000000000000000000000000000000000000000000000000000000000000000000000000000000000000000000000000000000000000000000000000000000000000000000000000000000000000000000000000000000000000000000000000000000000000000000000000000000UAVENIDA BRASIL NORTE, 318 B                                 153850002943ILHA SOLTEIRA       SP3345477651
R021985585300013320180002005210450880   IVANILDE VARGAS MAGHETAS GONCALVES                          31883391865   LUCAS DE LIMA RODRIGUES                                     1     01012018000000000650000000000000650000000000000000000000000000000000000000000000000000000000000000000000000000000000000000000000000000000000000000000000000000000000000000000000000000000000000000000000000000000000000000000000000000000000000000000000000000000000000000000000000000000000000000000000000000000000000000000000000000000000000000000000000000000000000000000000000000000000000000000000000000000000000000000000000000000000000000000000000000000000000000000000000000000000000000000000000000000000000000000000UAVENIDA BRASIL NORTE, 318 C                                 153850002943ILHA SOLTEIRA       SP0979037743
R021985585300013320180002105210450880   IVANILDE VARGAS MAGHETAS GONCALVES                          04133305000122PITAGORAS RUIZ PEREIRA ILHA SOLTEIRA - ME                   1     01012018000000000580310000000000580300000000000000000000000000000000000000000000000000000000000000000000000000000000000000000000000000000000000000000000000000000000000000000000000000000000000000000000000000000000000000000000000000000000000000000000000000000000000000000000000000000000000000000000000000000000000000000000000000000000000000000000000000000000000000000000000000000000000000000000000000000000000000000000000000000000000000000000000000000000000000000000000000000000000000000000000000000000000000000000UAVENIDA BRASIL NORTE, 318 D                                 153850002943ILHA SOLTEIRA       SP4223945524
R021985585300013320180002205210450880   IVANILDE VARGAS MAGHETAS GONCALVES                          80316140830   SEBASTIAO BORGES DE CARVALHO                                1     01012018000000000785500000000000785000000000000000000000000000000000000000000000000000000000000000000000000000000000000000000000000000000000000000000000000000000000000000000000000000000000000000000000000000000000000000000000000000000000000000000000000000000000000000000000000000000000000000000000000000000000000000000000000000000000000000000000000000000000000000000000000000000000000000000000000000000000000000000000000000000000000000000000000000000000000000000000000000000000000000000000000000000000000000000000UAVENIDA BRASIL NORTE, 318 E                                 153850002943ILHA SOLTEIRA       SP1242248178
R021985585300013320180002305210450880   IVANILDE VARGAS MAGHETAS GONCALVES                          66173295000106ILHA TINTAS LTDA - ME                                       1     01012018000000001312270000000001312200000000000000000000000000000000000000000000000000000000000000000000000000000000000000000000000000000000000000000000000000000000000000000000000000000000000000000000000000000000000000000000000000000000000000000000000000000000000000000000000000000000000000000000000000000000000000000000000000000000000000000000000000000000000000000000000000000000000000000000000000000000000000000000000000000000000000000000000000000000000000000000000000000000000000000000000000000000000000000000UAVENIDA BRASIL SUL, 403                                     153850002943ILHA SOLTEIRA       SP3149067944
R021985585300013320180002405210450880   IVANILDE VARGAS MAGHETAS GONCALVES                          33919052803   FERNANDO HENRIQUE DE OLIVEIRA CAMARA                        1     01012018000000000370000000000000370000000000000000000000000000000000000000000000000000000000000000000000000000000000000000000000000000000000000000000000000000000000000000000000000000000000000000000000000000000000000000000000000000000000000000000000000000000000000000000000000000000000000000000000000000000000000000000000000000000000000000000000000000000000000000000000000000000000000000000000000000000000000000000000000000000000000000000000000000000000000000000000000000000000000000000000000000000000000000000000UPASSEIO OLINDA, 322                                         153850002943ILHA SOLTEIRA       SP2518754396
R021985585300013320180002505210450880   IVANILDE VARGAS MAGHETAS GONCALVES                          06861055832   ANTONIO CARLOS CARNIO                                       1     01012018000000000747850000000000747800000000000000000000000000000000000000000000000000000000000000000000000000000000000000000000000000000000000000000000000000000000000000000000000000000000000000000000000000000000000000000000000000000000000000000000000000000000000000000000000000000000000000000000000000000000000000000000000000000000000000000000000000000000000000000000000000000000000000000000000000000000000000000000000000000000000000000000000000000000000000000000000000000000000000000000000000000000000000000000UPASSEIO PARANAGUA, 303                                      153850002943ILHA SOLTEIRA       SP0043786241
R021985585300013320180002600461302845   CLEUZA MARIA GUILHERMINO                                    30293052875   RICARDO DA SILVA SERRA                                      1     01012018000000001006510000000001006500000000000000000000000000000000000000000000000000000000000000000000000000000000000000000000000000000000000000000000000000000000000000000000000000000000000000000000000000000000000000000000000000000000000000000000000000000000000000000000000000000000000000000000000000000000000000000000000000000000000000000000000000000000000000000000000000000000000000000000000000000000000000000000000000000000000000000000000000000000000000000000000000000000000000000000000000000000000000000000UPASSEIO PRADO, 105                                          153850002943ILHA SOLTEIRA       SP1950811719
R021985585300013320180002755787428820   DALGERTI LELIS MILANEZ                                      14597362819   GIANE MARIUZZO CAMESCHI                                     1     01012018000000001117000000000001117000000000000000000000000000000000000000000000000000000000000000000000000000000000000000000000000000000000000000000000000000000000000000000000000000000000000000000000000000000000000000000000000000000000000000000000000000000000000000000000000000000000000000000000000000000000000000000000000000000000000000000000000000000000000000000000000000000000000000000000000000000000000000000000000000000000000000000000000000000000000000000000000000000000000000000000000000000000000000000000UPASSEIO MOCOCA, 204                                         153850002943ILHA SOLTEIRA       SP3014396981
R021985585300013320180002836254606887   DARCY VILAS BOAS                                            25838410841   SILVA BENTO DA SILVA                                        1     01012018000000000737200000000000737200000000000000000000000000000000000000000000000000000000000000000000000000000000000000000000000000000000000000000000000000000000000000000000000000000000000000000000000000000000000000000000000000000000000000000000000000000000000000000000000000000000000000000000000000000000000000000000000000000000000000000000000000000000000000000000000000000000000000000000000000000000000000000000000000000000000000000000000000000000000000000000000000000000000000000000000000000000000000000000UPASSEIO CARACOL, 315                                        153850002943ILHA SOLTEIRA       SP1795709449
R021985585300013320180002936254606887   DARCY VILAS BOAS                                            04873983193   TIAGO RODRIGUES DA COSTA                                    1     01012018000000000535250000000000535300000000000000000000000000000000000000000000000000000000000000000000000000000000000000000000000000000000000000000000000000000000000000000000000000000000000000000000000000000000000000000000000000000000000000000000000000000000000000000000000000000000000000000000000000000000000000000000000000000000000000000000000000000000000000000000000000000000000000000000000000000000000000000000000000000000000000000000000000000000000000000000000000000000000000000000000000000000000000000000UPASSEIO FORTALEZA, 307                                      153850002943ILHA SOLTEIRA       SP1303667497
R021985585300013320180003036254606887   DARCY VILAS BOAS                                            98781030134   ANDREIA MARIA RUFINO                                        1     01012018000000000717180000000000000000000000000000000000000000000000000000000000000000000000000000000000000000000000000000000000000000000000000000000000000000000000000000000000000000000000000000000000000000000000000000000000000000000000000000000000000000000000000000000000000000000000000000000000000000000000000000000000000000000000000000000000000000000000000000000000000000000000000000000000000000000000000000000000000000000000000000000000000000000000000000000000000000000000000000000000000000000000000000000000UPASSEIO PARATI, 209                                         153850002943ILHA SOLTEIRA       SP1054300261
R021985585300013320180003136254606887   DARCY VILAS BOAS                                            59754648000104MUNICIPIO DA ESTANCIA TURISTICA DE ILHA SOLTEIRA            1     01012018000000000750000000000000750000000000000000000000000000000000000000000000000000000000000000000000000000000000000000000000000000000000000000000000000000000000000000000000000000000000000000000000000000000000000000000000000000000000000000000000000000000000000000000000000000000000000000000000000000000000000000000000000000000000000000000000000000000000000000000000000000000000000000000000000000000000000000000000000000000000000000000000000000000000000000000000000000000000000000000000000000000000000000000000UPASSEIO SANTOS, 413                                         153850002943ILHA SOLTEIRA       SP2358238570
R021985585300013320180003200254690106   EDSON APARECIDO PASCHOALI                                   15169185847   SANDRA AKEMI KUROKAWA                                       1     01012018000000002703480000000002703500000000000000000000000000000000000000000000000000000000000000000000000000000000000000000000000000000000000000000000000000000000000000000000000000000000000000000000000000000000000000000000000000000000000000000000000000000000000000000000000000000000000000000000000000000000000000000000000000000000000000000000000000000000000000000000000000000000000000000000000000000000000000000000000000000000000000000000000000000000000000000000000000000000000000000000000000000000000000000000UAVENIDA BRASIL SUL, 371                                     153850002943ILHA SOLTEIRA       SP3038764299
R021985585300013320180003301309012881   ELIANA MASSUMI MINODA TAKENOBU                              14417866864   SONIA MARIA DA COSTA                                        1     01012018000000000820000000000000820000000000000000000000000000000000000000000000000000000000000000000000000000000000000000000000000000000000000000000000000000000000000000000000000000000000000000000000000000000000000000000000000000000000000000000000000000000000000000000000000000000000000000000000000000000000000000000000000000000000000000000000000000000000000000000000000000000000000000000000000000000000000000000000000000000000000000000000000000000000000000000000000000000000000000000000000000000000000000000000UPASSEIO CRISTALINA, 419                                     153850002943ILHA SOLTEIRA       SP0650610029
R021985585300013320180003404722425809   ERISVALDA AZEVEDO DE SA                                     00635945000180NELSON GONCALVES FILHO                                      1     01012018000000001264000000000001264000000000000000000000000000000000000000000000000000000000000000000000000000000000000000000000000000000000000000000000000000000000000000000000000000000000000000000000000000000000000000000000000000000000000000000000000000000000000000000000000000000000000000000000000000000000000000000000000000000000000000000000000000000000000000000000000000000000000000000000000000000000000000000000000000000000000000000000000000000000000000000000000000000000000000000000000000000000000000000000UAVENIDA BRASIL SUL, 302                                     153850002943ILHA SOLTEIRA       SP3540379704
R021985585300013320180003504722425809   ERISVALDO AZEVEDO DE SA                                     10748025863   ERIKA TERUMI AOKI LEIMI                                     1     01012018000000002616000000000002616000000000000000000000000000000000000000000000000000000000000000000000000000000000000000000000000000000000000000000000000000000000000000000000000000000000000000000000000000000000000000000000000000000000000000000000000000000000000000000000000000000000000000000000000000000000000000000000000000000000000000000000000000000000000000000000000000000000000000000000000000000000000000000000000000000000000000000000000000000000000000000000000000000000000000000000000000000000000000000000UAVENIDA BRASIL SUL, 302 B - C                               153850002943ILHA SOLTEIRA       SP4106187416
R021985585300013320180003604722425809   ERISVALDA AZEVEDO DE SA                                     25230508892   FERNANDO GONCALVES DOURADO                                  1     01012018000000000428760000000000428800000000000000000000000000000000000000000000000000000000000000000000000000000000000000000000000000000000000000000000000000000000000000000000000000000000000000000000000000000000000000000000000000000000000000000000000000000000000000000000000000000000000000000000000000000000000000000000000000000000000000000000000000000000000000000000000000000000000000000000000000000000000000000000000000000000000000000000000000000000000000000000000000000000000000000000000000000000000000000000UAVENIDA BRASIL SUL, 302                                     153850002943ILHA SOLTEIRA       SP2358517662
R021985585300013320180003707852999808   FERNANDO HINO KATO                                          05107225802   MARCO ANTONIO CAMILLO DE CARVALHO                           1     01012018000000000750000000000000750000000000000000000000000000000000000000000000000000000000000000000000000000000000000000000000000000000000000000000000000000000000000000000000000000000000000000000000000000000000000000000000000000000000000000000000000000000000000000000000000000000000000000000000000000000000000000000000000000000000000000000000000000000000000000000000000000000000000000000000000000000000000000000000000000000000000000000000000000000000000000000000000000000000000000000000000000000000000000000000UPASSEIO BELO HORIZONTE, 206                                 153850002943ILHA SOLTEIRA       SP3997941729
R021985585300013320180003807852999808   PEDRO LUIS DE LIMA RAMOS                                    31077098839   PEDRO LUIS DE LIMA RAMOS                                    1     01012018000000000800000000000000800000000000000000000000000000000000000000000000000000000000000000000000000000000000000000000000000000000000000000000000000000000000000000000000000000000000000000000000000000000000000000000000000000000000000000000000000000000000000000000000000000000000000000000000000000000000000000000000000000000000000000000000000000000000000000000000000000000000000000000000000000000000000000000000000000000000000000000000000000000000000000000000000000000000000000000000000000000000000000000000UPASSEIO CUIABA, 221                                         153850002943ILHA SOLTEIRA       SP4244945305
R021985585300013320180003921569662819   FABIANO FERNANDES VIEIRAS                                   23096269000119RIO PARANA DE ENERGIA S/A                                   1     01012018000000004500000000000004500000000000037637000000000000000000000000000000000000000000000000000000000000000000000000000000000000000000000000000000000000000000000000000000000000000000000000000000000000000000000000000000000000000000000000000000000000000000000000000000000000000000000000000000000000000000000000000000000000000000000000000000000000000000000000000000000000000000000000000000000000000000000000000000000000000000000000000000000000000000000000000000000000000000000000000000000000000000000000000000URUA CANELA, 134                                             153850002943ILHA SOLTEIRA       SP2332459974
R021985585300013320180004011739385837   HELENICE SAYURI HIRAI                                       06615576937   LUIS EDUARDO ZAMPAR FILHO                                   1     01012018000000000230000000000000230000000000000000000000000000000000000000000000000000000000000000000000000000000000000000000000000000000000000000000000000000000000000000000000000000000000000000000000000000000000000000000000000000000000000000000000000000000000000000000000000000000000000000000000000000000000000000000000000000000000000000000000000000000000000000000000000000000000000000000000000000000000000000000000000000000000000000000000000000000000000000000000000000000000000000000000000000000000000000000000URUA JATAI, 55 - APTO 01                                     153850002943ILHA SOLTEIRA       SP1535709233
R021985585300013320180004111739385837   HELENICE SAYURI HIRAI                                       28395338805   MARCIA TABONE PASCHOALINI                                   1     01012018000000000230000000000000230000000000000000000000000000000000000000000000000000000000000000000000000000000000000000000000000000000000000000000000000000000000000000000000000000000000000000000000000000000000000000000000000000000000000000000000000000000000000000000000000000000000000000000000000000000000000000000000000000000000000000000000000000000000000000000000000000000000000000000000000000000000000000000000000000000000000000000000000000000000000000000000000000000000000000000000000000000000000000000000URUA JATAI, 55 - APTO 02                                     153850002943ILHA SOLTEIRA       SP1941294149
R021985585300013320180004211739385837   HELENICE SAYURI HIRAI                                       32683329865   LUIZ FERNANDO CREMONEZ                                      1     01012018000000000230000000000000230000000000000000000000000000000000000000000000000000000000000000000000000000000000000000000000000000000000000000000000000000000000000000000000000000000000000000000000000000000000000000000000000000000000000000000000000000000000000000000000000000000000000000000000000000000000000000000000000000000000000000000000000000000000000000000000000000000000000000000000000000000000000000000000000000000000000000000000000000000000000000000000000000000000000000000000000000000000000000000000URUA JATAI, 55 - APTO 03                                     153850002943ILHA SOLTEIRA       SP0340708122
R021985585300013320180004311739385837   HELENICE SAYURI HIRAI                                       55786960820   ATAMAR ALVES FILHO                                          1     01012018000000000230000000000000230000000000000000000000000000000000000000000000000000000000000000000000000000000000000000000000000000000000000000000000000000000000000000000000000000000000000000000000000000000000000000000000000000000000000000000000000000000000000000000000000000000000000000000000000000000000000000000000000000000000000000000000000000000000000000000000000000000000000000000000000000000000000000000000000000000000000000000000000000000000000000000000000000000000000000000000000000000000000000000000URUA JATAI, 55 - APTO 04                                     153850002943ILHA SOLTEIRA       SP3380072319
R021985585300013320180004411739385837   HELENICE SAYURI HIRAI                                       39706663843   ALINE CRISTINA ALVES DA SILVA                               1     01012018000000000230000000000000230000000000000000000000000000000000000000000000000000000000000000000000000000000000000000000000000000000000000000000000000000000000000000000000000000000000000000000000000000000000000000000000000000000000000000000000000000000000000000000000000000000000000000000000000000000000000000000000000000000000000000000000000000000000000000000000000000000000000000000000000000000000000000000000000000000000000000000000000000000000000000000000000000000000000000000000000000000000000000000000URUA JATAI, 55 - APTO 07                                     153850002943ILHA SOLTEIRA       SP0946480851
R021985585300013320180004511739385837   HELENICE SAYURI HIRAI                                       08133434882   SANDRA DE NOBILE EDGAR                                      1     01012018000000000230000000000000230000000000000000000000000000000000000000000000000000000000000000000000000000000000000000000000000000000000000000000000000000000000000000000000000000000000000000000000000000000000000000000000000000000000000000000000000000000000000000000000000000000000000000000000000000000000000000000000000000000000000000000000000000000000000000000000000000000000000000000000000000000000000000000000000000000000000000000000000000000000000000000000000000000000000000000000000000000000000000000000URUA JATAI, 55 - APTO 08                                     153850002943ILHA SOLTEIRA       SP2184388870
R021985585300013320180004611739385837   HELENICE SAYURI HIRAI                                       44379915832   JOAO PEDRO GONCALVES TORRES                                 1     01012018000000000230000000000000230000000000000000000000000000000000000000000000000000000000000000000000000000000000000000000000000000000000000000000000000000000000000000000000000000000000000000000000000000000000000000000000000000000000000000000000000000000000000000000000000000000000000000000000000000000000000000000000000000000000000000000000000000000000000000000000000000000000000000000000000000000000000000000000000000000000000000000000000000000000000000000000000000000000000000000000000000000000000000000000URUA JATAI, 55 - APTO 09                                     153850002943ILHA SOLTEIRA       SP2946243756
R021985585300013320180004711739385837   HELENICE SAYURI HIRAI                                       38389368846   LUANA MARIA JULIO DE FREITAS                                1     01012018000000000230000000000000230000000000000000000000000000000000000000000000000000000000000000000000000000000000000000000000000000000000000000000000000000000000000000000000000000000000000000000000000000000000000000000000000000000000000000000000000000000000000000000000000000000000000000000000000000000000000000000000000000000000000000000000000000000000000000000000000000000000000000000000000000000000000000000000000000000000000000000000000000000000000000000000000000000000000000000000000000000000000000000000URUA JATAI, 55 - APTO 10                                     153850002943ILHA SOLTEIRA       SP1057636584
R021985585300013320180004811739385837   HELENICE SAYURI HIRAI                                       17227761886   ELOISA LETICIA MOSCA                                        1     01012018000000000230000000000000230000000000000000000000000000000000000000000000000000000000000000000000000000000000000000000000000000000000000000000000000000000000000000000000000000000000000000000000000000000000000000000000000000000000000000000000000000000000000000000000000000000000000000000000000000000000000000000000000000000000000000000000000000000000000000000000000000000000000000000000000000000000000000000000000000000000000000000000000000000000000000000000000000000000000000000000000000000000000000000000URUA JATAI, 55 - APTO 11                                     153850002943ILHA SOLTEIRA       SP1221410981
R021985585300013320180004911739385837   HELENICE SAYURI HIRAI                                       40300431864   RENAN FRANCISCO RIMOLDI TAVANTI                             1     01012018000000000230000000000000230000000000000000000000000000000000000000000000000000000000000000000000000000000000000000000000000000000000000000000000000000000000000000000000000000000000000000000000000000000000000000000000000000000000000000000000000000000000000000000000000000000000000000000000000000000000000000000000000000000000000000000000000000000000000000000000000000000000000000000000000000000000000000000000000000000000000000000000000000000000000000000000000000000000000000000000000000000000000000000000URUA JATAI, 55 - APTO 12                                     153850002943ILHA SOLTEIRA       SP2756707278
R021985585300013320180005011739385837   HELENICE SAYURI HIRAI                                       33947459840   ANTONIO CARLOS PINTO                                        1     01012018000000000246380000000000246400000000000000000000000000000000000000000000000000000000000000000000000000000000000000000000000000000000000000000000000000000000000000000000000000000000000000000000000000000000000000000000000000000000000000000000000000000000000000000000000000000000000000000000000000000000000000000000000000000000000000000000000000000000000000000000000000000000000000000000000000000000000000000000000000000000000000000000000000000000000000000000000000000000000000000000000000000000000000000000URUA JATAI, 55 - APTO 13                                     153850002943ILHA SOLTEIRA       SP0850477986
R021985585300013320180005111739385837   HELENICE SAYURI HIRAI                                       10040665895   ELIANA BORGHERI DOS SANTOS                                  1     01012018000000000225000000000000225000000000000000000000000000000000000000000000000000000000000000000000000000000000000000000000000000000000000000000000000000000000000000000000000000000000000000000000000000000000000000000000000000000000000000000000000000000000000000000000000000000000000000000000000000000000000000000000000000000000000000000000000000000000000000000000000000000000000000000000000000000000000000000000000000000000000000000000000000000000000000000000000000000000000000000000000000000000000000000000URUA JATAI, 55 - APTO 14                                     153850002943ILHA SOLTEIRA       SP0519012929
R021985585300013320180005211739385837   HELENICE SAYURI HIRAI                                       31832969851   SUELEN BOTAS GUADAGNOLO                                     1     01012018000000000230000000000000230000000000000000000000000000000000000000000000000000000000000000000000000000000000000000000000000000000000000000000000000000000000000000000000000000000000000000000000000000000000000000000000000000000000000000000000000000000000000000000000000000000000000000000000000000000000000000000000000000000000000000000000000000000000000000000000000000000000000000000000000000000000000000000000000000000000000000000000000000000000000000000000000000000000000000000000000000000000000000000000URUA JATAI, 55 - APTO 15                                     153850002943ILHA SOLTEIRA       SP2305306884
R021985585300013320180005311739385837   HELENICE SAYURI HIRAI                                       47085967153   CLEIB DOMINGOS DE LIMA                                      1     01012018000000000230000000000000230000000000000000000000000000000000000000000000000000000000000000000000000000000000000000000000000000000000000000000000000000000000000000000000000000000000000000000000000000000000000000000000000000000000000000000000000000000000000000000000000000000000000000000000000000000000000000000000000000000000000000000000000000000000000000000000000000000000000000000000000000000000000000000000000000000000000000000000000000000000000000000000000000000000000000000000000000000000000000000000URUA JATAI, 55 - APTO 16                                     153850002943ILHA SOLTEIRA       SP0758446320
R021985585300013320180005411739382811   RICARDO AKIRA HIRAI                                         06615576937   LUIS EDUARDO ZAMPAR FILHO                                   1     01012018000000000230000000000000230000000000000000000000000000000000000000000000000000000000000000000000000000000000000000000000000000000000000000000000000000000000000000000000000000000000000000000000000000000000000000000000000000000000000000000000000000000000000000000000000000000000000000000000000000000000000000000000000000000000000000000000000000000000000000000000000000000000000000000000000000000000000000000000000000000000000000000000000000000000000000000000000000000000000000000000000000000000000000000000URUA JATAI, 55 - APTO 01                                     153850002943ILHA SOLTEIRA       SP3855492326
R021985585300013320180005511739382811   RICARDO AKIRA HIRAI                                         28395338805   MARCIA TABONE PASCHOALINI                                   1     01012018000000000230000000000000230000000000000000000000000000000000000000000000000000000000000000000000000000000000000000000000000000000000000000000000000000000000000000000000000000000000000000000000000000000000000000000000000000000000000000000000000000000000000000000000000000000000000000000000000000000000000000000000000000000000000000000000000000000000000000000000000000000000000000000000000000000000000000000000000000000000000000000000000000000000000000000000000000000000000000000000000000000000000000000000URUA JATAI, 55 - APTO 02                                     153850002943ILHA SOLTEIRA       SP3455252626
R021985585300013320180005611739382811   RICARDO AKIRA HIRAI                                         32683329865   LUIZ FERNANDO CREMONEZ                                      1     01012018000000000230000000000000230000000000000000000000000000000000000000000000000000000000000000000000000000000000000000000000000000000000000000000000000000000000000000000000000000000000000000000000000000000000000000000000000000000000000000000000000000000000000000000000000000000000000000000000000000000000000000000000000000000000000000000000000000000000000000000000000000000000000000000000000000000000000000000000000000000000000000000000000000000000000000000000000000000000000000000000000000000000000000000000URUA JATAI, 55 - APTO 03                                     153850002943ILHA SOLTEIRA       SP2852782029
R021985585300013320180005711739382811   RICARDO AKIRA HIRAI                                         55786960820   ATAMAR ALVES FILHO                                          1     01012018000000000230000000000000230000000000000000000000000000000000000000000000000000000000000000000000000000000000000000000000000000000000000000000000000000000000000000000000000000000000000000000000000000000000000000000000000000000000000000000000000000000000000000000000000000000000000000000000000000000000000000000000000000000000000000000000000000000000000000000000000000000000000000000000000000000000000000000000000000000000000000000000000000000000000000000000000000000000000000000000000000000000000000000000URUA JATAI, 55 - APTO 04                                     153850002943ILHA SOLTEIRA       SP1999698856
R021985585300013320180005811739382811   RICARDO AKIRA HIRAI                                         39706663843   ALINE CRISTINA ALVES DA SILVA                               1     01012018000000000230000000000000230000000000000000000000000000000000000000000000000000000000000000000000000000000000000000000000000000000000000000000000000000000000000000000000000000000000000000000000000000000000000000000000000000000000000000000000000000000000000000000000000000000000000000000000000000000000000000000000000000000000000000000000000000000000000000000000000000000000000000000000000000000000000000000000000000000000000000000000000000000000000000000000000000000000000000000000000000000000000000000000URUA JATAI, 55 - APTO 07                                     153850002943ILHA SOLTEIRA       SP2157661219
R021985585300013320180005911739382811   RICARDO AKIRA HIRAI                                         08133434882   SANDRA DE NOBILE EDGAR                                      1     01012018000000000230000000000000230000000000000000000000000000000000000000000000000000000000000000000000000000000000000000000000000000000000000000000000000000000000000000000000000000000000000000000000000000000000000000000000000000000000000000000000000000000000000000000000000000000000000000000000000000000000000000000000000000000000000000000000000000000000000000000000000000000000000000000000000000000000000000000000000000000000000000000000000000000000000000000000000000000000000000000000000000000000000000000000URUA JATAI, 55 - APTO 08                                     153850002943ILHA SOLTEIRA       SP0985811958
R021985585300013320180006011739382811   RICARDO AKIRA HIRAI                                         44379915832   JOAO PEDRO GONCALVES TORRES                                 1     01012018000000000230000000000000230000000000000000000000000000000000000000000000000000000000000000000000000000000000000000000000000000000000000000000000000000000000000000000000000000000000000000000000000000000000000000000000000000000000000000000000000000000000000000000000000000000000000000000000000000000000000000000000000000000000000000000000000000000000000000000000000000000000000000000000000000000000000000000000000000000000000000000000000000000000000000000000000000000000000000000000000000000000000000000000URUA JATAI, 55 - APTO 09                                     153850002943ILHA SOLTEIRA       SP0385490833
R021985585300013320180006111739382811   RICARDO AKIRA HIRAI                                         38389368846   LUANA MARIA JULIO DE FREITAS                                1     01012018000000000230000000000000230000000000000000000000000000000000000000000000000000000000000000000000000000000000000000000000000000000000000000000000000000000000000000000000000000000000000000000000000000000000000000000000000000000000000000000000000000000000000000000000000000000000000000000000000000000000000000000000000000000000000000000000000000000000000000000000000000000000000000000000000000000000000000000000000000000000000000000000000000000000000000000000000000000000000000000000000000000000000000000000URUA JATAI, 55 - APTO 10                                     153850002943ILHA SOLTEIRA       SP2255242197
R021985585300013320180006211739382811   RICARDO AKIRA HIRAI                                         17227761886   ELOISA LETICIA MOSCA                                        1     01012018000000000230000000000000230000000000000000000000000000000000000000000000000000000000000000000000000000000000000000000000000000000000000000000000000000000000000000000000000000000000000000000000000000000000000000000000000000000000000000000000000000000000000000000000000000000000000000000000000000000000000000000000000000000000000000000000000000000000000000000000000000000000000000000000000000000000000000000000000000000000000000000000000000000000000000000000000000000000000000000000000000000000000000000000URUA JATAI, 55 - APTO 11                                     153850002943ILHA SOLTEIRA       SP0436121996
R021985585300013320180006311739382811   RICARDO AKIRA HIRAI                                         40300431864   RENAN FRANCISCO RIMOLDI TAVANTI                             1     01012018000000000230000000000000230000000000000000000000000000000000000000000000000000000000000000000000000000000000000000000000000000000000000000000000000000000000000000000000000000000000000000000000000000000000000000000000000000000000000000000000000000000000000000000000000000000000000000000000000000000000000000000000000000000000000000000000000000000000000000000000000000000000000000000000000000000000000000000000000000000000000000000000000000000000000000000000000000000000000000000000000000000000000000000000URUA JATAI, 55 - APTO 12                                     153850002943ILHA SOLTEIRA       SP4116968167
R021985585300013320180006411739382811   RICARDO AKIRA HIRAI                                         33947459840   ANTONIO CARLOS PINTO                                        1     01012018000000000246380000000000246400000000000000000000000000000000000000000000000000000000000000000000000000000000000000000000000000000000000000000000000000000000000000000000000000000000000000000000000000000000000000000000000000000000000000000000000000000000000000000000000000000000000000000000000000000000000000000000000000000000000000000000000000000000000000000000000000000000000000000000000000000000000000000000000000000000000000000000000000000000000000000000000000000000000000000000000000000000000000000000URUA JATAI, 55 - APTO 13                                     153850002943ILHA SOLTEIRA       SP3546887720
R021985585300013320180006511739382811   RICARDO AKIRA HIRAI                                         10040665895   ELIANA BORGHERI DOS SANTOS                                  1     01012018000000000225000000000000225000000000000000000000000000000000000000000000000000000000000000000000000000000000000000000000000000000000000000000000000000000000000000000000000000000000000000000000000000000000000000000000000000000000000000000000000000000000000000000000000000000000000000000000000000000000000000000000000000000000000000000000000000000000000000000000000000000000000000000000000000000000000000000000000000000000000000000000000000000000000000000000000000000000000000000000000000000000000000000000URUA JATAI, 55 - APTO 14                                     153850002943ILHA SOLTEIRA       SP4281857995
R021985585300013320180006611739382811   RICARDO AKIRA HIRAI                                         31832969851   SUELEN BOTAS GUADAGNOLO                                     1     01012018000000000230000000000000230000000000000000000000000000000000000000000000000000000000000000000000000000000000000000000000000000000000000000000000000000000000000000000000000000000000000000000000000000000000000000000000000000000000000000000000000000000000000000000000000000000000000000000000000000000000000000000000000000000000000000000000000000000000000000000000000000000000000000000000000000000000000000000000000000000000000000000000000000000000000000000000000000000000000000000000000000000000000000000000URUA JATAI, 55 - APTO 15                                     153850002943ILHA SOLTEIRA       SP1756382350
R021985585300013320180006711739382811   RICARDO AKIRA HIRAI                                         47085967153   CLEIB DOMINGOS DE LIMA                                      1     01012018000000000230000000000000230000000000000000000000000000000000000000000000000000000000000000000000000000000000000000000000000000000000000000000000000000000000000000000000000000000000000000000000000000000000000000000000000000000000000000000000000000000000000000000000000000000000000000000000000000000000000000000000000000000000000000000000000000000000000000000000000000000000000000000000000000000000000000000000000000000000000000000000000000000000000000000000000000000000000000000000000000000000000000000000URUA JATAI, 55 - APTO 16                                     153850002943ILHA SOLTEIRA       SP3438054778
R021985585300013320180006805207865803   HISAKO MINODA                                               27743972860   ALEXSANDRO DOS SANTOS FELIPE                                1     01012018000000000700000000000000700000000000000000000000000000000000000000000000000000000000000000000000000000000000000000000000000000000000000000000000000000000000000000000000000000000000000000000000000000000000000000000000000000000000000000000000000000000000000000000000000000000000000000000000000000000000000000000000000000000000000000000000000000000000000000000000000000000000000000000000000000000000000000000000000000000000000000000000000000000000000000000000000000000000000000000000000000000000000000000000UAVENIDA BRASIL SUL, 122 A                                   153850002943ILHA SOLTEIRA       SP1934905205
R021985585300013320180006905207865803   HISAKO MINODA                                               09551102894   JULIANA CECILIA DA SILVA                                    1     01012018000000000812560000000000812600000000000000000000000000000000000000000000000000000000000000000000000000000000000000000000000000000000000000000000000000000000000000000000000000000000000000000000000000000000000000000000000000000000000000000000000000000000000000000000000000000000000000000000000000000000000000000000000000000000000000000000000000000000000000000000000000000000000000000000000000000000000000000000000000000000000000000000000000000000000000000000000000000000000000000000000000000000000000000000UAVENIDA BRASIL SUL, 122 B                                   153850002943ILHA SOLTEIRA       SP3286771327
R021985585300013320180007005207865803   HISAKO MINODA                                               18141710885   GISELE MARIA PIACENTI SELVIRIO DE SOUZA                     1     01012018000000000800000000000000800000000000000000000000000000000000000000000000000000000000000000000000000000000000000000000000000000000000000000000000000000000000000000000000000000000000000000000000000000000000000000000000000000000000000000000000000000000000000000000000000000000000000000000000000000000000000000000000000000000000000000000000000000000000000000000000000000000000000000000000000000000000000000000000000000000000000000000000000000000000000000000000000000000000000000000000000000000000000000000000UAVENIDA BRASIL SUL, 122 C                                   153850002943ILHA SOLTEIRA       SP0845607355
R021985585300013320180007105207865803   HISAKO MINODA                                               34770086857   JOSE FLAVIO DE SOUZA                                        1     01012018000000000819500000000000819500000000000000000000000000000000000000000000000000000000000000000000000000000000000000000000000000000000000000000000000000000000000000000000000000000000000000000000000000000000000000000000000000000000000000000000000000000000000000000000000000000000000000000000000000000000000000000000000000000000000000000000000000000000000000000000000000000000000000000000000000000000000000000000000000000000000000000000000000000000000000000000000000000000000000000000000000000000000000000000UAVENIDA BRASIL SUL, 122 D                                   153850002943ILHA SOLTEIRA       SP2553197633
R021985585300013320180007205207865803   HISAKO MINODA                                               29354756824   ELLEN QUEIROZ RIOS                                          1     01012018000000000450000000000000450000000000000000000000000000000000000000000000000000000000000000000000000000000000000000000000000000000000000000000000000000000000000000000000000000000000000000000000000000000000000000000000000000000000000000000000000000000000000000000000000000000000000000000000000000000000000000000000000000000000000000000000000000000000000000000000000000000000000000000000000000000000000000000000000000000000000000000000000000000000000000000000000000000000000000000000000000000000000000000000UAVENIDA BRASIL SUL, 122 E                                   153850002943ILHA SOLTEIRA       SP4005754127
R021985585300013320180007305207865803   HISAKO MINODA                                               39471210836   ELYARA DA SILVA OLIVEIRA                                    1     01012018000000000350000000000000350000000000000000000000000000000000000000000000000000000000000000000000000000000000000000000000000000000000000000000000000000000000000000000000000000000000000000000000000000000000000000000000000000000000000000000000000000000000000000000000000000000000000000000000000000000000000000000000000000000000000000000000000000000000000000000000000000000000000000000000000000000000000000000000000000000000000000000000000000000000000000000000000000000000000000000000000000000000000000000000UPASSEIO BELO HORIZONTE, 416                                 153850002943ILHA SOLTEIRA       SP0699384814
R021985585300013320180007405207865803   HISAKO MINODA                                               08067287104   ORDESINO CANTARIO DE OLIVEIRA                               1     01012018000000000350000000000000350000000000000000000000000000000000000000000000000000000000000000000000000000000000000000000000000000000000000000000000000000000000000000000000000000000000000000000000000000000000000000000000000000000000000000000000000000000000000000000000000000000000000000000000000000000000000000000000000000000000000000000000000000000000000000000000000000000000000000000000000000000000000000000000000000000000000000000000000000000000000000000000000000000000000000000000000000000000000000000000UPASSEIO BELO HORIZONTE, 416                                 153850002943ILHA SOLTEIRA       SP1144342162
R021985585300013320180007505207865803   HISAKO MINODA                                               01820931000107JOSE JORGE KETELHUTE FRANCO DE CARVALHO - ME                1     01012018000000000800000000000000800000000000000000000000000000000000000000000000000000000000000000000000000000000000000000000000000000000000000000000000000000000000000000000000000000000000000000000000000000000000000000000000000000000000000000000000000000000000000000000000000000000000000000000000000000000000000000000000000000000000000000000000000000000000000000000000000000000000000000000000000000000000000000000000000000000000000000000000000000000000000000000000000000000000000000000000000000000000000000000000UPASSEIO SOROCABA, 111                                       153850002943ILHA SOLTEIRA       SP4035543975
R021985585300013320180007615728790178   IVANIR DA SILVA FERNANDES FRANCHINI                         30556658809   REGIS KENJI KAMIMURA                                        1     01012018000000000997500000000000977500000000000000000000000000000000000000000000000000000000000000000000000000000000000000000000000000000000000000000000000000000000000000000000000000000000000000000000000000000000000000000000000000000000000000000000000000000000000000000000000000000000000000000000000000000000000000000000000000000000000000000000000000000000000000000000000000000000000000000000000000000000000000000000000000000000000000000000000000000000000000000000000000000000000000000000000000000000000000000000UPASSEIO BARRAS, 213                                         153850002943ILHA SOLTEIRA       SP0717165146
R021985585300013320180007707327174850   JEFERSON DOMINGUES BUENO                                    33979877841   DENILSON FLORES                                             1     01012018000000002702900000000002702900000000000000000000000000000000000000000000000000000000000000000000000000000000000000000000000000000000000000000000000000000000000000000000000000000000000000000000000000000000000000000000000000000000000000000000000000000000000000000000000000000000000000000000000000000000000000000000000000000000000000000000000000000000000000000000000000000000000000000000000000000000000000000000000000000000000000000000000000000000000000000000000000000000000000000000000000000000000000000000UALAMEDA MINAS GERAIS, 64                                    153850002943ILHA SOLTEIRA       SP1933409824
R021985585300013320180007829311144800   JESUINO ZICILIM                                             06726616830   SANTA BOTAS DA SILVA                                        1     01012018000000000700000000000000700000000000000000000000000000000000000000000000000000000000000000000000000000000000000000000000000000000000000000000000000000000000000000000000000000000000000000000000000000000000000000000000000000000000000000000000000000000000000000000000000000000000000000000000000000000000000000000000000000000000000000000000000000000000000000000000000000000000000000000000000000000000000000000000000000000000000000000000000000000000000000000000000000000000000000000000000000000000000000000000UPASSEIO ICARAI, 312                                         153850002943ILHA SOLTEIRA       SP0543808036
R021985585300013320180007931366589815   LAURENTINA LOURENCO                                         31724393804   ELIAS NUNES MOREIRA DA SILVA                                1     01012018000000000884080000000000884100000000000000000000000000000000000000000000000000000000000000000000000000000000000000000000000000000000000000000000000000000000000000000000000000000000000000000000000000000000000000000000000000000000000000000000000000000000000000000000000000000000000000000000000000000000000000000000000000000000000000000000000000000000000000000000000000000000000000000000000000000000000000000000000000000000000000000000000000000000000000000000000000000000000000000000000000000000000000000000UAVENIDA BRASIL NORTE, 175 - SALA 01                         153850002943ILHA SOLTEIRA       SP3704006440
R021985585300013320180008031366589815   LAURENTINA LOURENCO                                         15505595000104ANTONIA CLAUDIA DA SILVA                                    1     01012018000000000821500000000000821500000000000000000000000000000000000000000000000000000000000000000000000000000000000000000000000000000000000000000000000000000000000000000000000000000000000000000000000000000000000000000000000000000000000000000000000000000000000000000000000000000000000000000000000000000000000000000000000000000000000000000000000000000000000000000000000000000000000000000000000000000000000000000000000000000000000000000000000000000000000000000000000000000000000000000000000000000000000000000000UAVENIDA BRASIL NORTE, 175 - SALA 02 03                      153850002943ILHA SOLTEIRA       SP1488633057
R021985585300013320180008131366589815   LAURENTINA LOURENCO                                         09284624000152C F DE MEDEIROS & CIA LTDA ME                               1     01012018000000000826960000000000000000000000000000000000000000000000000000000000000000000000000000000000000000000000000000000000000000000000000000000000000000000000000000000000000000000000000000000000000000000000000000000000000000000000000000000000000000000000000000000000000000000000000000000000000000000000000000000000000000000000000000000000000000000000000000000000000000000000000000000000000000000000000000000000000000000000000000000000000000000000000000000000000000000000000000000000000000000000000000000000UAVENIDA BRASIL NORTE, 175 - SALA 04                         153850002943ILHA SOLTEIRA       SP1412756633
R021985585300013320180008231366589815   LAURENTINA LOURENCO                                         09538986873   MARCO AURELIO RODRIGUES SILVA                               1     01012018000000000656730000000000656700000000000000000000000000000000000000000000000000000000000000000000000000000000000000000000000000000000000000000000000000000000000000000000000000000000000000000000000000000000000000000000000000000000000000000000000000000000000000000000000000000000000000000000000000000000000000000000000000000000000000000000000000000000000000000000000000000000000000000000000000000000000000000000000000000000000000000000000000000000000000000000000000000000000000000000000000000000000000000000UPASSEIO ILHEUS, 109                                         153850002943ILHA SOLTEIRA       SP2562741851
T9198558530001332018000085                                                                  3837448114
R1198558530001331606696097
R91985585300013330845775380421364062
